{"abi":[{"type":"constructor","inputs":[{"name":"_g","type":"address","internalType":"address"},{"name":"_s","type":"address","internalType":"address"},{"name":"_r","type":"address","internalType":"address"},{"name":"_d","type":"address","internalType":"address"}],"stateMutability":"nonpayable"},{"type":"function","name":"GTOKEN","inputs":[],"outputs":[{"name":"","type":"address","internalType":"address"}],"stateMutability":"view"},{"type":"function","name":"GTOKEN_STAKING","inputs":[],"outputs":[{"name":"","type":"address","internalType":"address"}],"stateMutability":"view"},{"type":"function","name":"REGISTRY","inputs":[],"outputs":[{"name":"","type":"address","internalType":"address"}],"stateMutability":"view"},{"type":"function","name":"SUPER_PAYMASTER","inputs":[],"outputs":[{"name":"","type":"address","internalType":"address"}],"stateMutability":"view"},{"type":"function","name":"VERSION","inputs":[],"outputs":[{"name":"","type":"string","internalType":"string"}],"stateMutability":"view"},{"type":"function","name":"VERSION_CODE","inputs":[],"outputs":[{"name":"","type":"uint256","internalType":"uint256"}],"stateMutability":"view"},{"type":"function","name":"airdropMint","inputs":[{"name":"u","type":"address","internalType":"address"},{"name":"roleId","type":"bytes32","internalType":"bytes32"},{"name":"roleData","type":"bytes","internalType":"bytes"}],"outputs":[{"name":"tid","type":"uint256","internalType":"uint256"},{"name":"isNew","type":"bool","internalType":"bool"}],"stateMutability":"nonpayable"},{"type":"function","name":"approve","inputs":[{"name":"to","type":"address","internalType":"address"},{"name":"tokenId","type":"uint256","internalType":"uint256"}],"outputs":[],"stateMutability":"nonpayable"},{"type":"function","name":"balanceOf","inputs":[{"name":"owner","type":"address","internalType":"address"}],"outputs":[{"name":"","type":"uint256","internalType":"uint256"}],"stateMutability":"view"},{"type":"function","name":"burnSBT","inputs":[],"outputs":[{"name":"net","type":"uint256","internalType":"uint256"}],"stateMutability":"nonpayable"},{"type":"function","name":"daoMultisig","inputs":[],"outputs":[{"name":"","type":"address","internalType":"address"}],"stateMutability":"view"},{"type":"function","name":"getApproved","inputs":[{"name":"tokenId","type":"uint256","internalType":"uint256"}],"outputs":[{"name":"","type":"address","internalType":"address"}],"stateMutability":"view"},{"type":"function","name":"getCommunityMembership","inputs":[{"name":"tid","type":"uint256","internalType":"uint256"},{"name":"comm","type":"address","internalType":"address"}],"outputs":[{"name":"mem","type":"tuple","internalType":"struct MySBT.CommunityMembership","components":[{"name":"community","type":"address","internalType":"address"},{"name":"joinedAt","type":"uint256","internalType":"uint256"},{"name":"lastActiveTime","type":"uint256","internalType":"uint256"},{"name":"isActive","type":"bool","internalType":"bool"},{"name":"metadata","type":"string","internalType":"string"}]}],"stateMutability":"view"},{"type":"function","name":"getMemberships","inputs":[{"name":"tid","type":"uint256","internalType":"uint256"}],"outputs":[{"name":"","type":"tuple[]","internalType":"struct MySBT.CommunityMembership[]","components":[{"name":"community","type":"address","internalType":"address"},{"name":"joinedAt","type":"uint256","internalType":"uint256"},{"name":"lastActiveTime","type":"uint256","internalType":"uint256"},{"name":"isActive","type":"bool","internalType":"bool"},{"name":"metadata","type":"string","internalType":"string"}]}],"stateMutability":"view"},{"type":"function","name":"getSBTData","inputs":[{"name":"tid","type":"uint256","internalType":"uint256"}],"outputs":[{"name":"","type":"tuple","internalType":"struct MySBT.SBTData","components":[{"name":"holder","type":"address","internalType":"address"},{"name":"firstCommunity","type":"address","internalType":"address"},{"name":"mintedAt","type":"uint256","internalType":"uint256"},{"name":"totalCommunities","type":"uint256","internalType":"uint256"}]}],"stateMutability":"view"},{"type":"function","name":"getUserSBT","inputs":[{"name":"u","type":"address","internalType":"address"}],"outputs":[{"name":"","type":"uint256","internalType":"uint256"}],"stateMutability":"view"},{"type":"function","name":"isApprovedForAll","inputs":[{"name":"owner","type":"address","internalType":"address"},{"name":"operator","type":"address","internalType":"address"}],"outputs":[{"name":"","type":"bool","internalType":"bool"}],"stateMutability":"view"},{"type":"function","name":"lastActivityTime","inputs":[{"name":"","type":"uint256","internalType":"uint256"},{"name":"","type":"address","internalType":"address"}],"outputs":[{"name":"","type":"uint256","internalType":"uint256"}],"stateMutability":"view"},{"type":"function","name":"leaveCommunity","inputs":[{"name":"comm","type":"address","internalType":"address"}],"outputs":[],"stateMutability":"nonpayable"},{"type":"function","name":"membershipIndex","inputs":[{"name":"","type":"uint256","internalType":"uint256"},{"name":"","type":"address","internalType":"address"}],"outputs":[{"name":"","type":"uint256","internalType":"uint256"}],"stateMutability":"view"},{"type":"function","name":"minLockAmount","inputs":[],"outputs":[{"name":"","type":"uint256","internalType":"uint256"}],"stateMutability":"view"},{"type":"function","name":"mintFee","inputs":[],"outputs":[{"name":"","type":"uint256","internalType":"uint256"}],"stateMutability":"view"},{"type":"function","name":"mintForRole","inputs":[{"name":"user","type":"address","internalType":"address"},{"name":"roleId","type":"bytes32","internalType":"bytes32"},{"name":"roleData","type":"bytes","internalType":"bytes"}],"outputs":[{"name":"tokenId","type":"uint256","internalType":"uint256"},{"name":"isNewMint","type":"bool","internalType":"bool"}],"stateMutability":"nonpayable"},{"type":"function","name":"name","inputs":[],"outputs":[{"name":"","type":"string","internalType":"string"}],"stateMutability":"view"},{"type":"function","name":"nextTokenId","inputs":[],"outputs":[{"name":"","type":"uint256","internalType":"uint256"}],"stateMutability":"view"},{"type":"function","name":"ownerOf","inputs":[{"name":"tokenId","type":"uint256","internalType":"uint256"}],"outputs":[{"name":"","type":"address","internalType":"address"}],"stateMutability":"view"},{"type":"function","name":"pause","inputs":[],"outputs":[],"stateMutability":"nonpayable"},{"type":"function","name":"paused","inputs":[],"outputs":[{"name":"","type":"bool","internalType":"bool"}],"stateMutability":"view"},{"type":"function","name":"recordActivity","inputs":[{"name":"u","type":"address","internalType":"address"}],"outputs":[],"stateMutability":"nonpayable"},{"type":"function","name":"reputationCalculator","inputs":[],"outputs":[{"name":"","type":"address","internalType":"address"}],"stateMutability":"view"},{"type":"function","name":"safeTransferFrom","inputs":[{"name":"from","type":"address","internalType":"address"},{"name":"to","type":"address","internalType":"address"},{"name":"tokenId","type":"uint256","internalType":"uint256"}],"outputs":[],"stateMutability":"nonpayable"},{"type":"function","name":"safeTransferFrom","inputs":[{"name":"from","type":"address","internalType":"address"},{"name":"to","type":"address","internalType":"address"},{"name":"tokenId","type":"uint256","internalType":"uint256"},{"name":"data","type":"bytes","internalType":"bytes"}],"outputs":[],"stateMutability":"nonpayable"},{"type":"function","name":"sbtData","inputs":[{"name":"","type":"uint256","internalType":"uint256"}],"outputs":[{"name":"holder","type":"address","internalType":"address"},{"name":"firstCommunity","type":"address","internalType":"address"},{"name":"mintedAt","type":"uint256","internalType":"uint256"},{"name":"totalCommunities","type":"uint256","internalType":"uint256"}],"stateMutability":"view"},{"type":"function","name":"setApprovalForAll","inputs":[{"name":"operator","type":"address","internalType":"address"},{"name":"approved","type":"bool","internalType":"bool"}],"outputs":[],"stateMutability":"nonpayable"},{"type":"function","name":"setDAOMultisig","inputs":[{"name":"d","type":"address","internalType":"address"}],"outputs":[],"stateMutability":"nonpayable"},{"type":"function","name":"setMinLockAmount","inputs":[{"name":"a","type":"uint256","internalType":"uint256"}],"outputs":[],"stateMutability":"nonpayable"},{"type":"function","name":"setMintFee","inputs":[{"name":"f","type":"uint256","internalType":"uint256"}],"outputs":[],"stateMutability":"nonpayable"},{"type":"function","name":"setRegistry","inputs":[{"name":"r","type":"address","internalType":"address"}],"outputs":[],"stateMutability":"nonpayable"},{"type":"function","name":"setReputationCalculator","inputs":[{"name":"c","type":"address","internalType":"address"}],"outputs":[],"stateMutability":"nonpayable"},{"type":"function","name":"setSuperPaymaster","inputs":[{"name":"_paymaster","type":"address","internalType":"address"}],"outputs":[],"stateMutability":"nonpayable"},{"type":"function","name":"supportsInterface","inputs":[{"name":"interfaceId","type":"bytes4","internalType":"bytes4"}],"outputs":[{"name":"","type":"bool","internalType":"bool"}],"stateMutability":"view"},{"type":"function","name":"symbol","inputs":[],"outputs":[{"name":"","type":"string","internalType":"string"}],"stateMutability":"view"},{"type":"function","name":"tokenURI","inputs":[{"name":"tokenId","type":"uint256","internalType":"uint256"}],"outputs":[{"name":"","type":"string","internalType":"string"}],"stateMutability":"view"},{"type":"function","name":"transferFrom","inputs":[{"name":"from","type":"address","internalType":"address"},{"name":"to","type":"address","internalType":"address"},{"name":"tokenId","type":"uint256","internalType":"uint256"}],"outputs":[],"stateMutability":"nonpayable"},{"type":"function","name":"unpause","inputs":[],"outputs":[],"stateMutability":"nonpayable"},{"type":"function","name":"userToSBT","inputs":[{"name":"","type":"address","internalType":"address"}],"outputs":[{"name":"","type":"uint256","internalType":"uint256"}],"stateMutability":"view"},{"type":"function","name":"verifyCommunityMembership","inputs":[{"name":"u","type":"address","internalType":"address"},{"name":"comm","type":"address","internalType":"address"}],"outputs":[{"name":"","type":"bool","internalType":"bool"}],"stateMutability":"view"},{"type":"function","name":"version","inputs":[],"outputs":[{"name":"","type":"uint256","internalType":"uint256"}],"stateMutability":"pure"},{"type":"function","name":"versionString","inputs":[],"outputs":[{"name":"","type":"string","internalType":"string"}],"stateMutability":"pure"},{"type":"function","name":"weeklyActivity","inputs":[{"name":"","type":"uint256","internalType":"uint256"},{"name":"","type":"address","internalType":"address"},{"name":"","type":"uint256","internalType":"uint256"}],"outputs":[{"name":"","type":"bool","internalType":"bool"}],"stateMutability":"view"},{"type":"event","name":"ActivityRecorded","inputs":[{"name":"tokenId","type":"uint256","indexed":true,"internalType":"uint256"},{"name":"community","type":"address","indexed":true,"internalType":"address"},{"name":"week","type":"uint256","indexed":false,"internalType":"uint256"},{"name":"timestamp","type":"uint256","indexed":false,"internalType":"uint256"}],"anonymous":false},{"type":"event","name":"Approval","inputs":[{"name":"owner","type":"address","indexed":true,"internalType":"address"},{"name":"approved","type":"address","indexed":true,"internalType":"address"},{"name":"tokenId","type":"uint256","indexed":true,"internalType":"uint256"}],"anonymous":false},{"type":"event","name":"ApprovalForAll","inputs":[{"name":"owner","type":"address","indexed":true,"internalType":"address"},{"name":"operator","type":"address","indexed":true,"internalType":"address"},{"name":"approved","type":"bool","indexed":false,"internalType":"bool"}],"anonymous":false},{"type":"event","name":"ContractPaused","inputs":[{"name":"by","type":"address","indexed":true,"internalType":"address"},{"name":"timestamp","type":"uint256","indexed":false,"internalType":"uint256"}],"anonymous":false},{"type":"event","name":"ContractUnpaused","inputs":[{"name":"by","type":"address","indexed":true,"internalType":"address"},{"name":"timestamp","type":"uint256","indexed":false,"internalType":"uint256"}],"anonymous":false},{"type":"event","name":"DAOMultisigUpdated","inputs":[{"name":"oldDAO","type":"address","indexed":true,"internalType":"address"},{"name":"newDAO","type":"address","indexed":true,"internalType":"address"},{"name":"timestamp","type":"uint256","indexed":false,"internalType":"uint256"}],"anonymous":false},{"type":"event","name":"MembershipAdded","inputs":[{"name":"tokenId","type":"uint256","indexed":true,"internalType":"uint256"},{"name":"community","type":"address","indexed":true,"internalType":"address"},{"name":"metadata","type":"string","indexed":false,"internalType":"string"},{"name":"timestamp","type":"uint256","indexed":false,"internalType":"uint256"}],"anonymous":false},{"type":"event","name":"MembershipDeactivated","inputs":[{"name":"tokenId","type":"uint256","indexed":true,"internalType":"uint256"},{"name":"community","type":"address","indexed":true,"internalType":"address"},{"name":"timestamp","type":"uint256","indexed":false,"internalType":"uint256"}],"anonymous":false},{"type":"event","name":"MinLockAmountUpdated","inputs":[{"name":"oldAmount","type":"uint256","indexed":false,"internalType":"uint256"},{"name":"newAmount","type":"uint256","indexed":false,"internalType":"uint256"},{"name":"timestamp","type":"uint256","indexed":false,"internalType":"uint256"}],"anonymous":false},{"type":"event","name":"MintFeeUpdated","inputs":[{"name":"oldFee","type":"uint256","indexed":false,"internalType":"uint256"},{"name":"newFee","type":"uint256","indexed":false,"internalType":"uint256"},{"name":"timestamp","type":"uint256","indexed":false,"internalType":"uint256"}],"anonymous":false},{"type":"event","name":"Paused","inputs":[{"name":"account","type":"address","indexed":false,"internalType":"address"}],"anonymous":false},{"type":"event","name":"RegistryUpdated","inputs":[{"name":"oldRegistry","type":"address","indexed":true,"internalType":"address"},{"name":"newRegistry","type":"address","indexed":true,"internalType":"address"},{"name":"timestamp","type":"uint256","indexed":false,"internalType":"uint256"}],"anonymous":false},{"type":"event","name":"ReputationCalculatorUpdated","inputs":[{"name":"oldCalculator","type":"address","indexed":true,"internalType":"address"},{"name":"newCalculator","type":"address","indexed":true,"internalType":"address"},{"name":"timestamp","type":"uint256","indexed":false,"internalType":"uint256"}],"anonymous":false},{"type":"event","name":"SBTBurned","inputs":[{"name":"user","type":"address","indexed":true,"internalType":"address"},{"name":"tokenId","type":"uint256","indexed":true,"internalType":"uint256"},{"name":"grossAmount","type":"uint256","indexed":false,"internalType":"uint256"},{"name":"netAmount","type":"uint256","indexed":false,"internalType":"uint256"},{"name":"timestamp","type":"uint256","indexed":false,"internalType":"uint256"}],"anonymous":false},{"type":"event","name":"SBTMinted","inputs":[{"name":"user","type":"address","indexed":true,"internalType":"address"},{"name":"tokenId","type":"uint256","indexed":true,"internalType":"uint256"},{"name":"firstCommunity","type":"address","indexed":true,"internalType":"address"},{"name":"timestamp","type":"uint256","indexed":false,"internalType":"uint256"}],"anonymous":false},{"type":"event","name":"SuperPaymasterUpdated","inputs":[{"name":"oldPaymaster","type":"address","indexed":true,"internalType":"address"},{"name":"newPaymaster","type":"address","indexed":true,"internalType":"address"},{"name":"timestamp","type":"uint256","indexed":false,"internalType":"uint256"}],"anonymous":false},{"type":"event","name":"Transfer","inputs":[{"name":"from","type":"address","indexed":true,"internalType":"address"},{"name":"to","type":"address","indexed":true,"internalType":"address"},{"name":"tokenId","type":"uint256","indexed":true,"internalType":"uint256"}],"anonymous":false},{"type":"event","name":"Unpaused","inputs":[{"name":"account","type":"address","indexed":false,"internalType":"address"}],"anonymous":false},{"type":"error","name":"E","inputs":[]},{"type":"error","name":"ERC721IncorrectOwner","inputs":[{"name":"sender","type":"address","internalType":"address"},{"name":"tokenId","type":"uint256","internalType":"uint256"},{"name":"owner","type":"address","internalType":"address"}]},{"type":"error","name":"ERC721InsufficientApproval","inputs":[{"name":"operator","type":"address","internalType":"address"},{"name":"tokenId","type":"uint256","internalType":"uint256"}]},{"type":"error","name":"ERC721InvalidApprover","inputs":[{"name":"approver","type":"address","internalType":"address"}]},{"type":"error","name":"ERC721InvalidOperator","inputs":[{"name":"operator","type":"address","internalType":"address"}]},{"type":"error","name":"ERC721InvalidOwner","inputs":[{"name":"owner","type":"address","internalType":"address"}]},{"type":"error","name":"ERC721InvalidReceiver","inputs":[{"name":"receiver","type":"address","internalType":"address"}]},{"type":"error","name":"ERC721InvalidSender","inputs":[{"name":"sender","type":"address","internalType":"address"}]},{"type":"error","name":"ERC721NonexistentToken","inputs":[{"name":"tokenId","type":"uint256","internalType":"uint256"}]},{"type":"error","name":"EnforcedPause","inputs":[]},{"type":"error","name":"ExpectedPause","inputs":[]},{"type":"error","name":"ReentrancyGuardReentrantCall","inputs":[]}],"bytecode":{"object":"0x60c060405234610211576130f86080813803918261001c8161042f565b9384928339810103126102115761003281610454565b9061003f60208201610454565b610057606061005060408501610454565b9301610454565b92610062604061042f565b601981527f4d7963656c69756d20536f756c20426f756e6420546f6b656e000000000000006020820152610096604061042f565b6005815264135e54d09560da1b6020820152815190916001600160401b038211610336575f5490600182811c92168015610425575b60208310146103185781601f8493116103b8575b50602090601f8311600114610355575f9261034a575b50508160011b915f199060031b1c1916175f555b8051906001600160401b0382116103365760015490600182811c9216801561032c575b60208310146103185781601f8493116102aa575b50602090601f8311600114610244575f92610239575b50508160011b915f199060031b1c1916176001555b600160068190556007805460ff19169055601255670429d069189e000060135567016345785d8a00006014556001600160a01b038116151580610227575b80610215575b156102115760805260a052600e80546001600160a01b039283166001600160a01b031991821617909155600f8054939092169216919091179055604051612c8f9081610469823960805181610bbd015260a051818181610b3f015261175c0152f35b5f80fd5b506001600160a01b03841615156101af565b506001600160a01b03821615156101a9565b015190505f80610156565b60015f9081528281209350601f198516905b818110610292575090846001959493921061027a575b505050811b0160015561016b565b01515f1960f88460031b161c191690555f808061026c565b92936020600181928786015181550195019301610256565b60015f529091507fb10e2d527612073b26eecdfd717e6a320cf44b4afac2b0732d9fcbe2b7fa0cf6601f840160051c8101916020851061030e575b90601f859493920160051c01905b8181106103005750610140565b5f81558493506001016102f3565b90915081906102e5565b634e487b7160e01b5f52602260045260245ffd5b91607f169161012c565b634e487b7160e01b5f52604160045260245ffd5b015190505f806100f5565b5f8080528281209350601f198516905b8181106103a05750908460019594939210610388575b505050811b015f55610109565b01515f1960f88460031b161c191690555f808061037b565b92936020600181928786015181550195019301610365565b5f80529091507f290decd9548b62a8d60345a988386fc84ba6bc95484008f6362f93160ef3e563601f840160051c8101916020851061041b575b90601f859493920160051c01905b81811061040d57506100df565b5f8155849350600101610400565b90915081906103f2565b91607f16916100cb565b6040519190601f01601f191682016001600160401b0381118382101761033657604052565b51906001600160a01b03821682036102115756fe6080806040526004361015610012575f80fd5b5f905f3560e01c90816301ffc9a714611b5a5750806306433b1b14611b3257806306fdde0314611a6b578063081812fc14611a2f5780630880427514611a12578063095ea7b3146119285780630f68ae40146118b957806311c45170146115d957806313966db5146115bb57806323b872dd146115a35780632d5a7f4f14610b6e5780632f7c88f5146114585780633e3e6842146110b95780633f4ba83a1461101857806342842e0e14610fee5780634f8cc06514610f6c57806354fd4d5014610f4e578063556697da14610e5a5780635bb5bf0c14610e235780635c975abb14610e005780636352211e14610dcf57806370a0823114610d7c57806371eb90a114610cb857806375794a3c14610c9a578063776fafac14610c3d5780637e21579114610bec5780637f6b337b14610ba757806380f4b8c814610b6e578063826600ce14610b295780638456cb5914610a95578063908c101814610a50578063919d1e2c14610a2757806395d89b4114610944578063a1141b07146108ff578063a22cb46514610858578063a6109650146107d7578063a91ee0dc14610746578063b88d4fde146106e3578063bead0513146105df578063bf1fb0f21461053b578063c0d0aa6914610512578063c580163e146104bb578063c87b56dd14610464578063ccbc10d01461043b578063dcaff6c5146103f2578063e79e973914610371578063e976306314610354578063e985e9c5146102fc578063eddd0d9c146102925763ffa1ad7414610244575f80fd5b3461028f578060031936011261028f5761028b604051610265604082611d5b565b60058152640332e302e360dc1b6020820152604051918291602083526020830190611bc5565b0390f35b80fd5b503461028f57602036600319011261028f577fd3950a5507479ea19c5c7766f5191546ace60f0a00dc360d52ce083b58f223316004356102dd60018060a01b03600f54163314611e07565b60145490806014556102f6604051928392429184611e3e565b0390a180f35b503461028f57604036600319011261028f576040610318611be9565b91610321611bff565b9260018060a01b031681526005602052209060018060a01b03165f52602052602060ff60405f2054166040519015158152f35b503461028f578060031936011261028f5760206040516175308152f35b503461028f57602036600319011261028f5761038b611be9565b6103a060018060a01b03600f54163314611e07565b601180546001600160a01b039283166001600160a01b031982168117909255604051428152919216907f3aef062d014a7168191b96fb2a9e3c807b09e2a887a23c265114bc08f9e5cf0290602090a380f35b503461028f578060031936011261028f5761028b604051610414604082611d5b565b6006815265076332e312e360d41b6020820152604051918291602083526020830190611bc5565b503461028f578060031936011261028f576010546040516001600160a01b039091168152602090f35b503461028f57602036600319011261028f576104816004356128f6565b5080604051610491602082611d5b565b525061028b6040516104a4602082611d5b565b5f8152604051918291602083526020830190611bc5565b503461028f576104fb6104cd36611c63565b929091506104d961292a565b6104e1612945565b6104f660018060a01b03600e5416331461201f565b61256c565b600160065560408051928352901515602083015290f35b503461028f578060031936011261028f57600f546040516001600160a01b039091168152602090f35b503461028f57602036600319011261028f576040816080926060835161056081611d40565b82815282602082015282858201520152600435815260096020522060405161058781611d40565b81546001600160a01b0390811680835260018401548216602080850191825260028601546040808701918252600390970154606096870190815287519485529251909416908301529151938101939093525190820152f35b503461028f57602036600319011261028f576105f9611be9565b61060161292a565b610609612945565b33825260086020526040822054801515806106c9575b156106c557808352600b6020526040832060018060a01b0383165f5260205260405f2054818452600a60205260408420548110156106b35761066c90828552600a60205260408520611e54565b5080546001600160a01b0393841693168314806106b7575b156106b35760030160ff1981541690555f516020612bda5f395f51905f526020604051428152a3600160065580f35b8380fd5b5060ff600382015416610684565b8280fd5b50336001600160a01b036106dc836128f6565b161461061f565b503461028f57608036600319011261028f576106fd611be9565b610705611bff565b606435916001600160401b0383116106b357366023840112156106b357610739610743933690602481600401359101611d99565b916044359161242c565b80f35b503461028f57602036600319011261028f57610760611be9565b61077560018060a01b03600f54163314611e07565b6001600160a01b031680156107d357600e80546001600160a01b0319811683179091556040514281526001600160a01b03909116907f724c89272c35417e239c6cd89ada342e0717632938f38b47eaacecacf291ace290602090a380f35b5080fd5b503461028f57602036600319011261028f576107f1611be9565b61080660018060a01b03600f54163314611e07565b601080546001600160a01b039283166001600160a01b031982168117909255604051428152919216907fb71a92720c720f655d24a8ebbeeb4c9875d85189ca58d32cb0e6997aa5e6c29190602090a380f35b503461028f57604036600319011261028f57610872611be9565b60243590811515908183036106b3576001600160a01b03169182156108eb576108bc90338552600560205260408520845f5260205260405f209060ff801983541691151516179055565b6040519081527f17307eab39ab6107e8899845ad3d59bd9653f200f220920489ca2b5937696c3160203392a380f35b630b61174360e31b84526004839052602484fd5b503461028f57604036600319011261028f57604061091b611bff565b916004358152600b602052209060018060a01b03165f52602052602060405f2054604051908152f35b503461028f578060031936011261028f5760405190806001549061096782611dcf565b8085529160018116908115610a0057506001146109a3575b61028b8461098f81860382611d5b565b604051918291602083526020830190611bc5565b600181527fb10e2d527612073b26eecdfd717e6a320cf44b4afac2b0732d9fcbe2b7fa0cf6939250905b8082106109e65750909150810160200161098f8261097f565b9192600181602092548385880101520191019092916109cd565b60ff191660208087019190915292151560051b8501909201925061098f915083905061097f565b503461028f578060031936011261028f576011546040516001600160a01b039091168152602090f35b503461028f57604036600319011261028f576040610a6c611bff565b916004358152600d602052209060018060a01b03165f52602052602060405f2054604051908152f35b503461028f578060031936011261028f57610abb60018060a01b03600f54163314611e07565b610ac361292a565b600160ff1960075416176007557f62e78cea01bee320cd4e420270b5ea74000d11b0c9f74754ebdbfc544b05a2586020604051338152a16040514281527f80170b5fcdd2bf1e0660ef4b8851f86685f64d41b1a19de1471947ece8725aac60203392a280f35b503461028f578060031936011261028f576040517f00000000000000000000000000000000000000000000000000000000000000006001600160a01b03168152602090f35b503461028f57602036600319011261028f576020906040906001600160a01b03610b96611be9565b168152600883522054604051908152f35b503461028f578060031936011261028f576040517f00000000000000000000000000000000000000000000000000000000000000006001600160a01b03168152602090f35b503461028f57606036600319011261028f5760ff6040602092610c0d611bff565b6004358252600c85528282209060018060a01b03165f528452815f20604435825284522054166040519015158152f35b503461028f57602036600319011261028f576040608091600435815260096020522060018060a01b038154169060018060a01b03600182015416906003600282015491015491604051938452602084015260408301526060820152f35b503461028f578060031936011261028f576020601254604051908152f35b503461028f57604036600319011261028f57600435610cd5611bff565b9060606080604051610ce681611d11565b85815285602082015285604082015285838201520152808352600b6020526040832060018060a01b0383165f5260205260405f205490808452600a60205260408420548210156106b357610d4e91610d48918552600a60205260408520611e54565b506122a6565b805190916001600160a01b039182169116036107d35761028b90604051918291602083526020830190611cca565b503461028f57602036600319011261028f576001600160a01b03610d9e611be9565b168015610dbb578160409160209352600383522054604051908152f35b6322718ad960e21b82526004829052602482fd5b503461028f57602036600319011261028f576020610dee6004356128f6565b6040516001600160a01b039091168152f35b503461028f578060031936011261028f57602060ff600754166040519015158152f35b503461028f57604036600319011261028f576020610e50610e42611be9565b610e4a611bff565b9061238e565b6040519015158152f35b503461028f57602036600319011261028f576004358152600a6020526040812080546001600160401b038111610f3a5760405190610e9e60208260051b0183611d5b565b80825260208201809385526020852085915b838310610f1c57868587604051928392602084019060208552518091526040840160408260051b8601019392905b828210610eed57505050500390f35b91936001919395506020610f0c8192603f198a82030186528851611cca565b9601920192018594939192610ede565b60056020600192610f2c856122a6565b815201920192019190610eb0565b634e487b7160e01b83526041600452602483fd5b503461028f578060031936011261028f576020604051622dcaa88152f35b503461028f57602036600319011261028f57610f86611be9565b600f54906001600160a01b03821690610fa0338314611e07565b6001600160a01b03169182156106b3576001600160a01b0319168217600f556040514281527f90de8705b1aaf3966be0e8ec8acf9aed10a6d3d0d572ec8f96112409e2820c6190602090a380f35b503461028f5761074361100036611c29565b9060405192611010602085611d5b565b85845261242c565b503461028f578060031936011261028f5761103e60018060a01b03600f54163314611e07565b60075460ff8116156110aa5760ff19166007557f5db9ee0a495bf2e6ff9c91a7834c1ba4fdd244a5e8aa4e537bd38aeae4b073aa6020604051338152a16040514281527f107553d8191d85b405879cf752997865edd48d94e20bda4dd27223c94b31a7cc60203392a280f35b638dfc202b60e01b8252600482fd5b503461028f576110c836611c63565b91506110d261292a565b6110da612945565b6110ef60018060a01b03600e5416331461201f565b6001600160a01b03831661110481151561205b565b808552600860205260408520548061129b57506012549161112483612268565b6012558294600196858301956020848803126107d3575f516020612bba5f395f51905f52939261126a92879261123c908c906001600160a01b0361116789611c15565b169b8c60036040519161117983611d40565b8d83526020808401918252426040808601918252606086018981528d8c5260098452818c20965187546001600160a01b03199081166001600160a01b039283161789559551888c01805490971691161790945590516002860155915192909301919091558c875260088252808720899055519099908a906111fa8282611d5b565b8781529311611288575b5050858452600a885260408420906040519261121f84611d11565b8d8452428a850152426040850152606084015260808301526120dc565b828152600b855260408082206001600160a01b038b165f90815290875220556112658282612a61565b612b3b565b604051428152a45b6001600655604080519182529115156020820152f35b6112929250612096565b90505f80611204565b9350509083818301926020818503126107d3576001600160a01b036112bf82611c15565b1693858352600b6020526040832060018060a01b0386165f5260205260405f2054868452600a60205285604085205482109182159261142d575b5050156113f757602091826040516113118282611d5b565b85815295116113e2575b5050848252600a8152611358604083206040519061133882611d11565b8682524284830152426040830152600160608301528560808301526120dc565b848252600a815260408220545f1981019081116113ce5792600360408460096113c6958a98895f516020612c3a5f395f51905f529952600b825284842060018060a01b038c165f528252845f20558883525220016113b68154612268565b905560405191829142908361228a565b0390a3611272565b634e487b7160e01b83526011600452602483fd5b6113ed929450612096565b9050915f8061131b565b60405162461bcd60e51b815260206004820152600e60248201526d20b63932b0b23c9036b2b6b132b960911b6044820152606490fd5b611444919250888652600a60205260408620611e54565b50546001600160a01b03161415855f6112f9565b503461028f57602036600319011261028f57611472611be9565b61147a61292a565b6114833361297d565b156107d3576001600160a01b031681526008602052604081205480156107d357808252600b6020526040822060018060a01b0333165f5260205260405f2054818352600a60205260408320548110908161157a575b50156107d357808252600d60209081526040808420335f90815292529020548015908115611563575b50156107d357808252600d6020526040822060018060a01b0333165f5260205260405f204290556040519062093a80420482524260208301527f0bd2c5444bc0126737809a3970e1c3bc8cf29e5efb7d5448cbaa6a9c1af8120760403393a380f35b905061012c81018091116113ce574210155f611501565b6115909150828452600a60205260408420611e54565b50546001600160a01b031633145f6114d8565b503461028f576107436115b536611c29565b91611e81565b503461028f578060031936011261028f576020601454604051908152f35b503461189b575f36600319011261189b576115f261292a565b6115fa612945565b335f52600860205260405f20548015158061189f575b1561189b576011546001600160a01b03168061185c575b50808252600a6020526040822090825b82548110156116a7578060ff600361165160019487611e54565b50015416611660575b01611637565b600361166c8286611e54565b5001805460ff191690556116808185611e54565b50828060a01b03905416835f516020612bda5f395f51905f526020604051428152a361165a565b83823382526008602052816040812055808252600260205260018060a01b03604083205416158015611854575b156107d357808252600260205260408220546001600160a01b03168015908115611833575b82845260026020526040842080546001600160a01b03191690558284825f516020612c1a5f395f51905f528280a4506118215760405163374e4d7360e01b81523360048201525f516020612bfa5f395f51905f52602482015290602082604481867f00000000000000000000000000000000000000000000000000000000000000006001600160a01b03165af19182156118165783926117de575b602083836013547f108d98610c6944880c68d31a01ab6252b635e7c7a9728687f31e68a76538c865604051806117ce339487429184611e3e565b0390a36001600655604051908152f35b9091506020813d60201161180e575b816117fa60209383611d5b565b810103126106c55760209250519083611794565b3d91506117ed565b6040513d85823e3d90fd5b637e27328960e01b8252600452602490fd5b61183c83612b9c565b80845260036020526040842080545f190190556116f9565b5060016116d4565b803b1561189b575f80916024604051809481936338319e6f60e01b83523360048401525af115611627576118939192505f90611d5b565b5f905f611627565b5f80fd5b50336001600160a01b036118b2836128f6565b1614611610565b3461189b57602036600319011261189b576004356118e260018060a01b03600f54163314611e07565b801561189b577f5d1f56e31e5dc1f29354822b887b1463ececf7edfad7c39216980b7dfd7ea97d906013549080601355611923604051928392429184611e3e565b0390a1005b3461189b57604036600319011261189b57611941611be9565b60243561194d816128f6565b331515806119ff575b806119d2575b6119bf5781906001600160a01b0384811691167f8c5be1e5ebec7d5bd14f71427d1e84f3dd0314c0f7b2291e5b200ac8c7c3b9255f80a45f90815260046020526040902080546001600160a01b0319166001600160a01b03909216919091179055005b63a9fbf51f60e01b5f523360045260245ffd5b506001600160a01b0381165f90815260056020908152604080832033845290915290205460ff161561195c565b506001600160a01b038116331415611956565b3461189b575f36600319011261189b576020601354604051908152f35b3461189b57602036600319011261189b57600435611a4c816128f6565b505f526004602052602060018060a01b0360405f205416604051908152f35b3461189b575f36600319011261189b576040515f5f54611a8a81611dcf565b8084529060018116908115611b0e5750600114611ab2575b61028b8361098f81850382611d5b565b5f8080527f290decd9548b62a8d60345a988386fc84ba6bc95484008f6362f93160ef3e563939250905b808210611af45750909150810160200161098f611aa2565b919260018160209254838588010152019101909291611adc565b60ff191660208086019190915291151560051b8401909101915061098f9050611aa2565b3461189b575f36600319011261189b57600e546040516001600160a01b039091168152602090f35b3461189b57602036600319011261189b576004359063ffffffff60e01b821680920361189b576020916380ac58cd60e01b8114908115611bb4575b8115611ba3575b5015158152f35b6301ffc9a760e01b14905083611b9c565b635b5e139f60e01b81149150611b95565b805180835260209291819084018484015e5f828201840152601f01601f1916010190565b600435906001600160a01b038216820361189b57565b602435906001600160a01b038216820361189b57565b35906001600160a01b038216820361189b57565b606090600319011261189b576004356001600160a01b038116810361189b57906024356001600160a01b038116810361189b579060443590565b90606060031983011261189b576004356001600160a01b038116810361189b5791602435916044356001600160401b03811161189b578260238201121561189b576004810135926001600160401b03841161189b576024848301011161189b576024019190565b9060a06080611d0e93600180841b03815116845260208101516020850152604081015160408501526060810151151560608501520151918160808201520190611bc5565b90565b60a081019081106001600160401b03821117611d2c57604052565b634e487b7160e01b5f52604160045260245ffd5b608081019081106001600160401b03821117611d2c57604052565b601f909101601f19168101906001600160401b03821190821017611d2c57604052565b6001600160401b038111611d2c57601f01601f191660200190565b929192611da582611d7e565b91611db36040519384611d5b565b82948184528183011161189b578281602093845f960137010152565b90600182811c92168015611dfd575b6020831014611de957565b634e487b7160e01b5f52602260045260245ffd5b91607f1691611dde565b15611e0e57565b60405162461bcd60e51b81526020600482015260086024820152674f6e6c792044414f60c01b6044820152606490fd5b6040919493926060820195825260208201520152565b8054821015611e6d575f52600560205f20910201905f90565b634e487b7160e01b5f52603260045260245ffd5b6001600160a01b039091169190821561200c575f828152600260205260409020546001600160a01b0316158015612005575b1561189b575f828152600260205260409020546001600160a01b031692829033151580611f70575b5084611f4f575b805f52600360205260405f2060018154019055815f52600260205260405f208160018060a01b0319825416179055845f516020612c1a5f395f51905f525f80a46001600160a01b0316808303611f3757505050565b6364283d7b60e01b5f5260045260245260445260645ffd5b611f5882612b9c565b845f52600360205260405f205f198154019055611ee2565b90915080611fb4575b15611f865782905f611edb565b8284611f9e57637e27328960e01b5f5260045260245ffd5b63177e802f60e01b5f523360045260245260445ffd5b503384148015611fe3575b80611f7957505f838152600460205260409020546001600160a01b03163314611f79565b505f84815260056020908152604080832033845290915290205460ff16611fbf565b505f611eb3565b633250574960e11b5f525f60045260245ffd5b1561202657565b60405162461bcd60e51b815260206004820152600d60248201526c4f6e6c7920526567697374727960981b6044820152606490fd5b1561206257565b60405162461bcd60e51b815260206004820152600c60248201526b24b73b30b634b2103ab9b2b960a11b6044820152606490fd5b919060408382031261189b576120ab83611c15565b926020810135906001600160401b03821161189b57019080601f8301121561189b57816020611d0e93359101611d99565b8054919291600160401b811015611d2c576120fc91600182018155611e54565b61225557825181546001600160a01b039091166001600160a01b03199091161781556020830151600182015560408301516002820155606083015160038201805460ff191691151560ff1691909117905560809060040192015191825160018060401b038111611d2c576121708254611dcf565b601f8111612210575b506020601f82116001146121b257819293945f926121a7575b50508160011b915f199060031b1c1916179055565b015190505f80612192565b601f19821690835f52805f20915f5b8181106121f8575095836001959697106121e0575b505050811b019055565b01515f1960f88460031b161c191690555f80806121d6565b9192602060018192868b0151815501940192016121c1565b825f5260205f20601f830160051c8101916020841061224b575b601f0160051c01905b8181106122405750612179565b5f8155600101612233565b909150819061222a565b634e487b7160e01b5f525f60045260245ffd5b5f1981146122765760010190565b634e487b7160e01b5f52601160045260245ffd5b9291906122a1602091604086526040860190611bc5565b930152565b906040516122b381611d11565b6004819360018060a01b038154168352600181015460208401526002810154604084015260ff60038201541615156060840152019060405180925f908054906122fb82611dcf565b80855291600181169081156123675750600114612328575b505060809291612324910384611d5b565b0152565b5f908152602081209092505b81831061234b575050810160200181612324612313565b6020919350806001915483858901015201910190918492612334565b60ff191660208681019190915292151560051b850190920192508391506123249050612313565b6001600160a01b03165f90815260086020526040902054801561242657805f52600b60205260405f2060018060a01b0383165f5260205260405f205490805f52600a60205260405f205482101561241f576123f791610d48915f52600a60205260405f20611e54565b80516001600160a01b039283169216919091149081612414575090565b606091500151151590565b5050505f90565b50505f90565b9291612439818386611e81565b813b612446575b50505050565b604051630a85bd0160e11b81523360048201526001600160a01b0394851660248201526044810191909152608060648201529216919060209082908190612491906084830190611bc5565b03815f865af15f9181612527575b506124f457503d156124ed573d6124b581611d7e565b906124c36040519283611d5b565b81523d5f602083013e5b805190816124e85782633250574960e11b5f5260045260245ffd5b602001fd5b60606124cd565b6001600160e01b03191663757a42ff60e11b0161251557505f808080612440565b633250574960e11b5f5260045260245ffd5b9091506020813d602011612564575b8161254360209383611d5b565b8101031261189b57516001600160e01b03198116810361189b57905f61249f565b3d9150612536565b919290916001600160a01b03811661258581151561205b565b805f52600860205260405f205480155f146127075750601254906125a882612268565b60125581956001958181019460208287031261189b575f516020612bba5f395f51905f52926126eb9186916126c3906001600160a01b036125e887611c15565b16998c60038c604051926125fb84611d40565b8c84526020808501928352426040808701918252606087018481525f8d815260098552828120985189546001600160a01b03199081166001600160a01b03928316178b559751968a01805490981696169590951790955590516002870155925193909401929092558b825260088352908190208790555190979088906126818282611d5b565b5f815293116126f4575b5050835f52600a865260405f20604051916126a583611d11565b8b835242888401524260408401528d606084015260808301526120dc565b5f828152600b855260408082206001600160a01b038b16835286528120556112658282612a61565b604051428152a4565b6126fe9250612096565b90505f8061268b565b94939150505f928082019160208184031261189b576001600160a01b0361272d82611c15565b1692602091826040516127408282611d5b565b5f815294116128e1575b50505f868152600b825260408082206001600160a01b0386168352835280822054888352600a84529120548110806128ba575b6128235750855f52600a81526127bd60405f206040519061279d82611d11565b8582524284830152426040830152600160608301528460808301526120dc565b855f52600a815260405f2054905f198201918211612276578692600961281e925f516020612c3a5f395f51905f5294865f52600b825260405f2060018060a01b0389165f52825260405f2055855f5252600360405f20016113b68154612268565b0390a3565b9091868096505f9794959752600a835260ff60036128448460405f20611e54565b500154166128b0576128936128a892600a5f516020612c3a5f395f51905f5295875f5281815260036128798460405f20611e54565b5001600160ff19825416179055875f525260405f20611e54565b5060014291015560405191829142908361228a565b0390a3905f90565b5050505050905f90565b50865f52600a8252836128d08260405f20611e54565b50546001600160a01b03161461277d565b6128ec929350612096565b9050905f8061274a565b5f818152600260205260409020546001600160a01b0316908115612918575090565b637e27328960e01b5f5260045260245ffd5b60ff6007541661293657565b63d93c066560e01b5f5260045ffd5b600260065414612956576002600655565b633ee5aeb560e01b5f5260045ffd5b9081602091031261189b5751801515810361189b5790565b600e546001600160a01b031690811561242657604051632474521560e21b81525f516020612bfa5f395f51905f5260048201526001600160a01b039091166024820181905290602081604481865afa5f9181612a40575b50612a3a5750602090602460405180948193636b10437f60e01b835260048301525afa5f9181612a09575b50611d0e57505f90565b612a2c91925060203d602011612a33575b612a248183611d5b565b810190612965565b905f6129ff565b503d612a1a565b91505090565b612a5a91925060203d602011612a3357612a248183611d5b565b905f6129d4565b6001600160a01b031690811561200c575f818152600260205260409020546001600160a01b0316158015612b34575b1561189b575f818152600260205260409020546001600160a01b03168015159290919083612b13575b805f52600360205260405f2060018154019055815f52600260205260405f208160018060a01b0319825416179055825f516020612c1a5f395f51905f525f80a450612b0057565b6339e3563760e11b5f525f60045260245ffd5b612b1c82612b9c565b825f52600360205260405f205f198154019055612ab9565b505f612a90565b6011546001600160a01b03169182612b5257505050565b823b1561189b5760405163f8ac15e360e01b81526001600160a01b0390921660048301526024820152905f908290604490829084905af1612b905750565b5f612b9a91611d5b565b565b5f90815260046020526040902080546001600160a01b031916905556fef5491bdb765a4be5a1bdc9bfd09cf61e1b89962ac33ed2e928f11a59a5e72331ee0396c067d25a2fde86b8e1c13e3995b0940b5f98651052d79fada14ea7dba5e94d78b6d8fb99b2c21131eb4552924a60f564d8515a3cc90ef300fc9735c074ddf252ad1be2c89b69c2b068fc378daa952ba7f163c4a11628f55a4df523b3efdce074e613075d639af3f726477d52ac48d3fbdb03f4aa8a9b1e6cede312db10a2646970667358221220fecaa7aca0d0a06d1a550139020c0f9d1220ea748fce07200c36a6c69c950f9d64736f6c634300081c0033","linkReferences":{}},"methodIdentifiers":{"GTOKEN()":"7f6b337b","GTOKEN_STAKING()":"826600ce","REGISTRY()":"06433b1b","SUPER_PAYMASTER()":"919d1e2c","VERSION()":"ffa1ad74","VERSION_CODE()":"e9763063","airdropMint(address,bytes32,bytes)":"c580163e","approve(address,uint256)":"095ea7b3","balanceOf(address)":"70a08231","burnSBT()":"11c45170","daoMultisig()":"c0d0aa69","getApproved(uint256)":"081812fc","getCommunityMembership(uint256,address)":"71eb90a1","getMemberships(uint256)":"556697da","getSBTData(uint256)":"bf1fb0f2","getUserSBT(address)":"80f4b8c8","isApprovedForAll(address,address)":"e985e9c5","lastActivityTime(uint256,address)":"908c1018","leaveCommunity(address)":"bead0513","membershipIndex(uint256,address)":"a1141b07","minLockAmount()":"08804275","mintFee()":"13966db5","mintForRole(address,bytes32,bytes)":"3e3e6842","name()":"06fdde03","nextTokenId()":"75794a3c","ownerOf(uint256)":"6352211e","pause()":"8456cb59","paused()":"5c975abb","recordActivity(address)":"2f7c88f5","reputationCalculator()":"ccbc10d0","safeTransferFrom(address,address,uint256)":"42842e0e","safeTransferFrom(address,address,uint256,bytes)":"b88d4fde","sbtData(uint256)":"776fafac","setApprovalForAll(address,bool)":"a22cb465","setDAOMultisig(address)":"4f8cc065","setMinLockAmount(uint256)":"0f68ae40","setMintFee(uint256)":"eddd0d9c","setRegistry(address)":"a91ee0dc","setReputationCalculator(address)":"a6109650","setSuperPaymaster(address)":"e79e9739","supportsInterface(bytes4)":"01ffc9a7","symbol()":"95d89b41","tokenURI(uint256)":"c87b56dd","transferFrom(address,address,uint256)":"23b872dd","unpause()":"3f4ba83a","userToSBT(address)":"2d5a7f4f","verifyCommunityMembership(address,address)":"5bb5bf0c","version()":"54fd4d50","versionString()":"dcaff6c5","weeklyActivity(uint256,address,uint256)":"7e215791"},"id":49}