{"abi":[{"type":"constructor","inputs":[{"name":"_gtoken","type":"address","internalType":"address"},{"name":"_gtokenStaking","type":"address","internalType":"address"},{"name":"_mysbt","type":"address","internalType":"address"}],"stateMutability":"nonpayable"},{"type":"function","name":"GTOKEN_STAKING","inputs":[],"outputs":[{"name":"","type":"address","internalType":"contract IGTokenStakingV3"}],"stateMutability":"view"},{"type":"function","name":"MYSBT","inputs":[],"outputs":[{"name":"","type":"address","internalType":"contract IMySBTV3"}],"stateMutability":"view"},{"type":"function","name":"ROLE_COMMUNITY","inputs":[],"outputs":[{"name":"","type":"bytes32","internalType":"bytes32"}],"stateMutability":"view"},{"type":"function","name":"ROLE_ENDUSER","inputs":[],"outputs":[{"name":"","type":"bytes32","internalType":"bytes32"}],"stateMutability":"view"},{"type":"function","name":"ROLE_KMS","inputs":[],"outputs":[{"name":"","type":"bytes32","internalType":"bytes32"}],"stateMutability":"view"},{"type":"function","name":"ROLE_PAYMASTER_AOA","inputs":[],"outputs":[{"name":"","type":"bytes32","internalType":"bytes32"}],"stateMutability":"view"},{"type":"function","name":"ROLE_PAYMASTER_SUPER","inputs":[],"outputs":[{"name":"","type":"bytes32","internalType":"bytes32"}],"stateMutability":"view"},{"type":"function","name":"VERSION","inputs":[],"outputs":[{"name":"","type":"string","internalType":"string"}],"stateMutability":"view"},{"type":"function","name":"VERSION_CODE","inputs":[],"outputs":[{"name":"","type":"uint256","internalType":"uint256"}],"stateMutability":"view"},{"type":"function","name":"accountToUser","inputs":[{"name":"","type":"address","internalType":"address"}],"outputs":[{"name":"","type":"address","internalType":"address"}],"stateMutability":"view"},{"type":"function","name":"batchUpdateGlobalReputation","inputs":[{"name":"users","type":"address[]","internalType":"address[]"},{"name":"newScores","type":"uint256[]","internalType":"uint256[]"},{"name":"epoch","type":"uint256","internalType":"uint256"},{"name":"","type":"bytes","internalType":"bytes"}],"outputs":[],"stateMutability":"nonpayable"},{"type":"function","name":"burnHistory","inputs":[{"name":"","type":"uint256","internalType":"uint256"}],"outputs":[{"name":"roleId","type":"bytes32","internalType":"bytes32"},{"name":"user","type":"address","internalType":"address"},{"name":"amount","type":"uint256","internalType":"uint256"},{"name":"timestamp","type":"uint256","internalType":"uint256"},{"name":"reason","type":"string","internalType":"string"}],"stateMutability":"view"},{"type":"function","name":"calculateExitFee","inputs":[{"name":"","type":"bytes32","internalType":"bytes32"},{"name":"","type":"uint256","internalType":"uint256"}],"outputs":[{"name":"","type":"uint256","internalType":"uint256"}],"stateMutability":"pure"},{"type":"function","name":"checkRole","inputs":[{"name":"roleId","type":"bytes32","internalType":"bytes32"},{"name":"user","type":"address","internalType":"address"}],"outputs":[{"name":"","type":"bool","internalType":"bool"}],"stateMutability":"view"},{"type":"function","name":"communityByENSV3","inputs":[{"name":"","type":"string","internalType":"string"}],"outputs":[{"name":"","type":"address","internalType":"address"}],"stateMutability":"view"},{"type":"function","name":"communityByNameV3","inputs":[{"name":"","type":"string","internalType":"string"}],"outputs":[{"name":"","type":"address","internalType":"address"}],"stateMutability":"view"},{"type":"function","name":"configureRole","inputs":[{"name":"roleId","type":"bytes32","internalType":"bytes32"},{"name":"config","type":"tuple","internalType":"struct IRegistryV3.RoleConfig","components":[{"name":"minStake","type":"uint256","internalType":"uint256"},{"name":"entryBurn","type":"uint256","internalType":"uint256"},{"name":"slashThreshold","type":"uint256","internalType":"uint256"},{"name":"slashBase","type":"uint256","internalType":"uint256"},{"name":"slashIncrement","type":"uint256","internalType":"uint256"},{"name":"slashMax","type":"uint256","internalType":"uint256"},{"name":"isActive","type":"bool","internalType":"bool"},{"name":"description","type":"string","internalType":"string"}]}],"outputs":[],"stateMutability":"nonpayable"},{"type":"function","name":"creditTierConfig","inputs":[{"name":"","type":"uint256","internalType":"uint256"}],"outputs":[{"name":"","type":"uint256","internalType":"uint256"}],"stateMutability":"view"},{"type":"function","name":"exitRole","inputs":[{"name":"roleId","type":"bytes32","internalType":"bytes32"}],"outputs":[],"stateMutability":"nonpayable"},{"type":"function","name":"getBurnHistory","inputs":[{"name":"user","type":"address","internalType":"address"}],"outputs":[{"name":"","type":"tuple[]","internalType":"struct IRegistryV3.BurnRecord[]","components":[{"name":"roleId","type":"bytes32","internalType":"bytes32"},{"name":"user","type":"address","internalType":"address"},{"name":"amount","type":"uint256","internalType":"uint256"},{"name":"timestamp","type":"uint256","internalType":"uint256"},{"name":"reason","type":"string","internalType":"string"}]}],"stateMutability":"view"},{"type":"function","name":"getCreditLimit","inputs":[{"name":"user","type":"address","internalType":"address"}],"outputs":[{"name":"","type":"uint256","internalType":"uint256"}],"stateMutability":"view"},{"type":"function","name":"getRoleConfig","inputs":[{"name":"roleId","type":"bytes32","internalType":"bytes32"}],"outputs":[{"name":"","type":"tuple","internalType":"struct IRegistryV3.RoleConfig","components":[{"name":"minStake","type":"uint256","internalType":"uint256"},{"name":"entryBurn","type":"uint256","internalType":"uint256"},{"name":"slashThreshold","type":"uint256","internalType":"uint256"},{"name":"slashBase","type":"uint256","internalType":"uint256"},{"name":"slashIncrement","type":"uint256","internalType":"uint256"},{"name":"slashMax","type":"uint256","internalType":"uint256"},{"name":"isActive","type":"bool","internalType":"bool"},{"name":"description","type":"string","internalType":"string"}]}],"stateMutability":"view"},{"type":"function","name":"getRoleUserCount","inputs":[{"name":"roleId","type":"bytes32","internalType":"bytes32"}],"outputs":[{"name":"","type":"uint256","internalType":"uint256"}],"stateMutability":"view"},{"type":"function","name":"getUserRoles","inputs":[{"name":"user","type":"address","internalType":"address"}],"outputs":[{"name":"","type":"bytes32[]","internalType":"bytes32[]"}],"stateMutability":"view"},{"type":"function","name":"globalReputation","inputs":[{"name":"","type":"address","internalType":"address"}],"outputs":[{"name":"","type":"uint256","internalType":"uint256"}],"stateMutability":"view"},{"type":"function","name":"hasRole","inputs":[{"name":"","type":"bytes32","internalType":"bytes32"},{"name":"","type":"address","internalType":"address"}],"outputs":[{"name":"","type":"bool","internalType":"bool"}],"stateMutability":"view"},{"type":"function","name":"isReputationSource","inputs":[{"name":"","type":"address","internalType":"address"}],"outputs":[{"name":"","type":"bool","internalType":"bool"}],"stateMutability":"view"},{"type":"function","name":"lastReputationEpoch","inputs":[{"name":"","type":"address","internalType":"address"}],"outputs":[{"name":"","type":"uint256","internalType":"uint256"}],"stateMutability":"view"},{"type":"function","name":"owner","inputs":[],"outputs":[{"name":"","type":"address","internalType":"address"}],"stateMutability":"view"},{"type":"function","name":"proposedRoleNames","inputs":[{"name":"","type":"bytes32","internalType":"bytes32"}],"outputs":[{"name":"","type":"string","internalType":"string"}],"stateMutability":"view"},{"type":"function","name":"registerRole","inputs":[{"name":"roleId","type":"bytes32","internalType":"bytes32"},{"name":"user","type":"address","internalType":"address"},{"name":"roleData","type":"bytes","internalType":"bytes"}],"outputs":[],"stateMutability":"nonpayable"},{"type":"function","name":"registerRoleSelf","inputs":[{"name":"roleId","type":"bytes32","internalType":"bytes32"},{"name":"roleData","type":"bytes","internalType":"bytes"}],"outputs":[{"name":"sbtTokenId","type":"uint256","internalType":"uint256"}],"stateMutability":"nonpayable"},{"type":"function","name":"renounceOwnership","inputs":[],"outputs":[],"stateMutability":"nonpayable"},{"type":"function","name":"roleConfigs","inputs":[{"name":"","type":"bytes32","internalType":"bytes32"}],"outputs":[{"name":"minStake","type":"uint256","internalType":"uint256"},{"name":"entryBurn","type":"uint256","internalType":"uint256"},{"name":"slashThreshold","type":"uint256","internalType":"uint256"},{"name":"slashBase","type":"uint256","internalType":"uint256"},{"name":"slashIncrement","type":"uint256","internalType":"uint256"},{"name":"slashMax","type":"uint256","internalType":"uint256"},{"name":"isActive","type":"bool","internalType":"bool"},{"name":"description","type":"string","internalType":"string"}],"stateMutability":"view"},{"type":"function","name":"roleMembers","inputs":[{"name":"","type":"bytes32","internalType":"bytes32"},{"name":"","type":"uint256","internalType":"uint256"}],"outputs":[{"name":"","type":"address","internalType":"address"}],"stateMutability":"view"},{"type":"function","name":"roleMetadata","inputs":[{"name":"","type":"bytes32","internalType":"bytes32"},{"name":"","type":"address","internalType":"address"}],"outputs":[{"name":"","type":"bytes","internalType":"bytes"}],"stateMutability":"view"},{"type":"function","name":"roleOwners","inputs":[{"name":"","type":"bytes32","internalType":"bytes32"}],"outputs":[{"name":"","type":"address","internalType":"address"}],"stateMutability":"view"},{"type":"function","name":"roleSBTTokenIds","inputs":[{"name":"","type":"bytes32","internalType":"bytes32"},{"name":"","type":"address","internalType":"address"}],"outputs":[{"name":"","type":"uint256","internalType":"uint256"}],"stateMutability":"view"},{"type":"function","name":"roleStakes","inputs":[{"name":"","type":"bytes32","internalType":"bytes32"},{"name":"","type":"address","internalType":"address"}],"outputs":[{"name":"","type":"uint256","internalType":"uint256"}],"stateMutability":"view"},{"type":"function","name":"safeMintForRole","inputs":[{"name":"roleId","type":"bytes32","internalType":"bytes32"},{"name":"user","type":"address","internalType":"address"},{"name":"data","type":"bytes","internalType":"bytes"}],"outputs":[{"name":"tokenId","type":"uint256","internalType":"uint256"}],"stateMutability":"nonpayable"},{"type":"function","name":"setCreditTier","inputs":[{"name":"level","type":"uint256","internalType":"uint256"},{"name":"limit","type":"uint256","internalType":"uint256"}],"outputs":[],"stateMutability":"nonpayable"},{"type":"function","name":"setReputationSource","inputs":[{"name":"source","type":"address","internalType":"address"},{"name":"active","type":"bool","internalType":"bool"}],"outputs":[],"stateMutability":"nonpayable"},{"type":"function","name":"transferOwnership","inputs":[{"name":"newOwner","type":"address","internalType":"address"}],"outputs":[],"stateMutability":"nonpayable"},{"type":"function","name":"userBurnHistory","inputs":[{"name":"","type":"address","internalType":"address"},{"name":"","type":"uint256","internalType":"uint256"}],"outputs":[{"name":"","type":"uint256","internalType":"uint256"}],"stateMutability":"view"},{"type":"event","name":"BurnExecuted","inputs":[{"name":"user","type":"address","indexed":true,"internalType":"address"},{"name":"roleId","type":"bytes32","indexed":true,"internalType":"bytes32"},{"name":"amount","type":"uint256","indexed":false,"internalType":"uint256"},{"name":"reason","type":"string","indexed":false,"internalType":"string"}],"anonymous":false},{"type":"event","name":"CreditTierUpdated","inputs":[{"name":"level","type":"uint256","indexed":false,"internalType":"uint256"},{"name":"creditLimit","type":"uint256","indexed":false,"internalType":"uint256"}],"anonymous":false},{"type":"event","name":"GlobalReputationUpdated","inputs":[{"name":"user","type":"address","indexed":true,"internalType":"address"},{"name":"newScore","type":"uint256","indexed":false,"internalType":"uint256"},{"name":"epoch","type":"uint256","indexed":false,"internalType":"uint256"}],"anonymous":false},{"type":"event","name":"OwnershipTransferred","inputs":[{"name":"previousOwner","type":"address","indexed":true,"internalType":"address"},{"name":"newOwner","type":"address","indexed":true,"internalType":"address"}],"anonymous":false},{"type":"event","name":"ReputationSourceUpdated","inputs":[{"name":"source","type":"address","indexed":true,"internalType":"address"},{"name":"isActive","type":"bool","indexed":false,"internalType":"bool"}],"anonymous":false},{"type":"event","name":"RoleConfigured","inputs":[{"name":"roleId","type":"bytes32","indexed":true,"internalType":"bytes32"},{"name":"config","type":"tuple","indexed":false,"internalType":"struct IRegistryV3.RoleConfig","components":[{"name":"minStake","type":"uint256","internalType":"uint256"},{"name":"entryBurn","type":"uint256","internalType":"uint256"},{"name":"slashThreshold","type":"uint256","internalType":"uint256"},{"name":"slashBase","type":"uint256","internalType":"uint256"},{"name":"slashIncrement","type":"uint256","internalType":"uint256"},{"name":"slashMax","type":"uint256","internalType":"uint256"},{"name":"isActive","type":"bool","internalType":"bool"},{"name":"description","type":"string","internalType":"string"}]},{"name":"timestamp","type":"uint256","indexed":false,"internalType":"uint256"}],"anonymous":false},{"type":"event","name":"RoleExited","inputs":[{"name":"roleId","type":"bytes32","indexed":true,"internalType":"bytes32"},{"name":"user","type":"address","indexed":true,"internalType":"address"},{"name":"exitFee","type":"uint256","indexed":false,"internalType":"uint256"},{"name":"timestamp","type":"uint256","indexed":false,"internalType":"uint256"}],"anonymous":false},{"type":"event","name":"RoleRegistered","inputs":[{"name":"roleId","type":"bytes32","indexed":true,"internalType":"bytes32"},{"name":"user","type":"address","indexed":true,"internalType":"address"},{"name":"burnAmount","type":"uint256","indexed":false,"internalType":"uint256"},{"name":"timestamp","type":"uint256","indexed":false,"internalType":"uint256"}],"anonymous":false},{"type":"error","name":"InsufficientStake","inputs":[{"name":"provided","type":"uint256","internalType":"uint256"},{"name":"required","type":"uint256","internalType":"uint256"}]},{"type":"error","name":"InvalidParameter","inputs":[{"name":"message","type":"string","internalType":"string"}]},{"type":"error","name":"OwnableInvalidOwner","inputs":[{"name":"owner","type":"address","internalType":"address"}]},{"type":"error","name":"OwnableUnauthorizedAccount","inputs":[{"name":"account","type":"address","internalType":"address"}]},{"type":"error","name":"ReentrancyGuardReentrantCall","inputs":[]},{"type":"error","name":"RoleAlreadyGranted","inputs":[{"name":"roleId","type":"bytes32","internalType":"bytes32"},{"name":"user","type":"address","internalType":"address"}]},{"type":"error","name":"RoleNotConfigured","inputs":[{"name":"roleId","type":"bytes32","internalType":"bytes32"}]},{"type":"error","name":"RoleNotGranted","inputs":[{"name":"roleId","type":"bytes32","internalType":"bytes32"},{"name":"user","type":"address","internalType":"address"}]}],"bytecode":{"object":"0x60c0604052346111b95761426b6060813803918261001c816111dd565b9384928339810103126111b95761003281611202565b5061004b604061004460208401611202565b9201611202565b33156111a6575f8054336001600160a01b0319821681178355604051949290916001600160a01b0316907f8be0079c531659141344cd1fd0a4f28419497f9722a3daafe3b4186f6b6457e09080a3600180556001600160a01b031691821561117257506001600160a01b031690811561113f5760805260a0526100ce60406111dd565b600d81526c20a7a0902830bcb6b0b9ba32b960991b602082015260076100f26111bd565b6801a055690d9db8000081526729a2241af62c00006020808301918252600a6040840181815260026060860181815260016080880181815260a0890195865260c0890191825260e089019a8b525f51602061422b5f395f51905f525f529290955295517f62cab8ae2b11b8b89a6aeec867aea04066879f1332e69de6e580ce3c9df2d8da90815594517f62cab8ae2b11b8b89a6aeec867aea04066879f1332e69de6e580ce3c9df2d8db5590517f62cab8ae2b11b8b89a6aeec867aea04066879f1332e69de6e580ce3c9df2d8dc5593517f62cab8ae2b11b8b89a6aeec867aea04066879f1332e69de6e580ce3c9df2d8dd5592517f62cab8ae2b11b8b89a6aeec867aea04066879f1332e69de6e580ce3c9df2d8de5591517f62cab8ae2b11b8b89a6aeec867aea04066879f1332e69de6e580ce3c9df2d8df55905161025b9015157f62cab8ae2b11b8b89a6aeec867aea04066879f1332e69de6e580ce3c9df2d8e0611216565b01905190815160018060401b038111610e47578154600181811c91168015611135575b6020821014610e2957601f81116110f0575b50602092601f821160011461109157928192935f92611086575b50508160011b915f199060031b1c19161790555b5f51602061422b5f395f51905f525f5260106020527f413f8e704dfa69286ceea633003bb8d41c2205618c221ad684c62f493ad2294780546001600160a01b0319163317905561030e60406111dd565b600e81526d29bab832b92830bcb6b0b9ba32b960911b602082015260076103336111bd565b6802b5e3af16b18800008152674563918244f400006020808301918252600a6040840181815260026060860181815260016080880181815260a0890195865260c0890191825260e089019a8b525f51602061420b5f395f51905f525f529290955295517fb4741b428dfef425fc3add4e8f8bd29f7934ab6d611612e2205aa0df7d64747590815594517fb4741b428dfef425fc3add4e8f8bd29f7934ab6d611612e2205aa0df7d6474765590517fb4741b428dfef425fc3add4e8f8bd29f7934ab6d611612e2205aa0df7d6474775593517fb4741b428dfef425fc3add4e8f8bd29f7934ab6d611612e2205aa0df7d6474785592517fb4741b428dfef425fc3add4e8f8bd29f7934ab6d611612e2205aa0df7d6474795591517fb4741b428dfef425fc3add4e8f8bd29f7934ab6d611612e2205aa0df7d64747a55905161049c9015157fb4741b428dfef425fc3add4e8f8bd29f7934ab6d611612e2205aa0df7d64747b611216565b01905190815160018060401b038111610e47578154600181811c9116801561107c575b6020821014610e2957601f8111611037575b50602092601f8211600114610fd857928192935f92610fcd575b50508160011b915f199060031b1c19161790555b5f51602061420b5f395f51905f525f5260106020527f50548ca8d22fb24dd757378b076c9d51067404597318263fe14d95981af7363f80546001600160a01b0319163317905561054f60406111dd565b6005815264414e4f444560d81b6020820152600761056b6111bd565b6801158e460913d000008152671bc16d674ec800006020808301918252600f6040840190815260016060850181815260808601828152600560a0880190815260c0880193845260e08801998a525f51602061424b5f395f51905f525f52600290955295517f94c8b539f4346cacec6243d5b4361ab263597bfb2e961081d902fe6ff26e24a590815594517f94c8b539f4346cacec6243d5b4361ab263597bfb2e961081d902fe6ff26e24a65591517f94c8b539f4346cacec6243d5b4361ab263597bfb2e961081d902fe6ff26e24a75590517f94c8b539f4346cacec6243d5b4361ab263597bfb2e961081d902fe6ff26e24a85592517f94c8b539f4346cacec6243d5b4361ab263597bfb2e961081d902fe6ff26e24a955517f94c8b539f4346cacec6243d5b4361ab263597bfb2e961081d902fe6ff26e24aa5590516106d49015157f94c8b539f4346cacec6243d5b4361ab263597bfb2e961081d902fe6ff26e24ab611216565b01905190815160018060401b038111610e47578154600181811c91168015610fc3575b6020821014610e2957601f8111610f7e575b50602092601f8211600114610f1f57928192935f92610f14575b50508160011b915f199060031b1c19161790555b5f51602061424b5f395f51905f525f5260106020527fe5221cb99999323965d85b84c912b8744e9cbcaca07c9ed2c528b499ee7bbc6b80546001600160a01b0319163317905561078760406111dd565b60038152624b4d5360e81b602082015260076107a16111bd565b68056bc75e2d631000008152678ac7230489e80000602080830191825260056040840181815260608501918252600260808601818152601460a08801908152600160c0890190815260e089019a8b525f5160206141cb5f395f51905f525f529290955295517fb6d6f2ef81599646430ffd77c4fd3b257cab16577a0a1dc7b59269fa85f7076190815594517fb6d6f2ef81599646430ffd77c4fd3b257cab16577a0a1dc7b59269fa85f707625590517fb6d6f2ef81599646430ffd77c4fd3b257cab16577a0a1dc7b59269fa85f707635590517fb6d6f2ef81599646430ffd77c4fd3b257cab16577a0a1dc7b59269fa85f707645592517fb6d6f2ef81599646430ffd77c4fd3b257cab16577a0a1dc7b59269fa85f7076555517fb6d6f2ef81599646430ffd77c4fd3b257cab16577a0a1dc7b59269fa85f7076655905161090b9015157fb6d6f2ef81599646430ffd77c4fd3b257cab16577a0a1dc7b59269fa85f70767611216565b01905190815160018060401b038111610e47578154600181811c91168015610f0a575b6020821014610e2957601f8111610ec5575b50602092601f8211600114610e6657928192935f92610e5b575b50508160011b915f199060031b1c19161790555b5f5160206141cb5f395f51905f525f5260106020527f56120646997546de0a4b799f27c2ec69164d8d6054cb12e0782cb7789559d68480546001600160a01b031916331790556109de6109c160406111dd565b6009815268436f6d6d756e69747960b81b60208201523390611227565b6109eb6109c160406111dd565b6109f560406111dd565b600781526622b7322ab9b2b960c91b60208201526007610a136111bd565b5f808252602080830182815260408401838152606085018481526080860185815260a08701868152600160c0890190815260e089019a8b527f0c34ecc75d3bf122e0609d2576e167f53fb42429262ce8c9b33cab91ff670e3a909752600290955295517f81f7a8f564b61e7963bfdc536ab87a0854d48d19c43323c1f4c080720d74681590815592517f81f7a8f564b61e7963bfdc536ab87a0854d48d19c43323c1f4c080720d7468165590517f81f7a8f564b61e7963bfdc536ab87a0854d48d19c43323c1f4c080720d74681755517f81f7a8f564b61e7963bfdc536ab87a0854d48d19c43323c1f4c080720d7468185592517f81f7a8f564b61e7963bfdc536ab87a0854d48d19c43323c1f4c080720d74681955517f81f7a8f564b61e7963bfdc536ab87a0854d48d19c43323c1f4c080720d74681a5551610b799015157f81f7a8f564b61e7963bfdc536ab87a0854d48d19c43323c1f4c080720d74681b611216565b01905190815160018060401b038111610e47578154600181811c91168015610e3d575b6020821014610e2957601f8111610de4575b50602092601f8211600114610d8557928192935f92610d7a575b50508160011b915f199060031b1c19161790555b7f48321f0c6d92a6c32306ec23130880ef8feb85690265117eed2314f0e6488d6080546001600160a01b031916339081179091555f7ffd54ff1ed53f34a900b24c5ba64f85761163b5d82d98a47b9bd80e45466993c581905568056bc75e2d631000007f10a81eed9d63d16face5e76357905348e6253d3394086026bb2bf2145d7cc24955681043561a88293000007f26b4a10d0f0b04925c23bd4480ee147c916e5e87a7d68206a533dad160ac81e255682086ac3510526000007fafafe8948a4ed9d478b1e9a5780b119b5edd00ea7d07bc35bef7c814824eb94b55683635c9adc5dea000007fa5049387d9cb649c59f4bda666105ba636c2a103d8e2b232ba4d125737cd214955686c6b935b8bbd4000007fa48544818c2c710afa9849c61ec9c60e8acdb3eaa2885f33b37e118cc8fd04ac55908152600e602052604090819020805460ff1916600117905551612cba90816115118239608051818181610aeb01528181610d470152818161130b01528181611abb0152611fc6015260a051818181611372015281816118a701528181611b23015261202e0152f35b015190505f80610bc8565b601f19821693835f52805f20915f5b868110610dcc5750836001959610610db4575b505050811b019055610bdc565b01515f1960f88460031b161c191690555f8080610da7565b91926020600181928685015181550194019201610d94565b825f5260205f20601f830160051c81019160208410610e1f575b601f0160051c01905b818110610e145750610bae565b5f8155600101610e07565b9091508190610dfe565b634e487b7160e01b5f52602260045260245ffd5b90607f1690610b9c565b634e487b7160e01b5f52604160045260245ffd5b015190505f8061095a565b601f19821693835f52805f20915f5b868110610ead5750836001959610610e95575b505050811b01905561096e565b01515f1960f88460031b161c191690555f8080610e88565b91926020600181928685015181550194019201610e75565b825f5260205f20601f830160051c81019160208410610f00575b601f0160051c01905b818110610ef55750610940565b5f8155600101610ee8565b9091508190610edf565b90607f169061092e565b015190505f80610723565b601f19821693835f52805f20915f5b868110610f665750836001959610610f4e575b505050811b019055610737565b01515f1960f88460031b161c191690555f8080610f41565b91926020600181928685015181550194019201610f2e565b825f5260205f20601f830160051c81019160208410610fb9575b601f0160051c01905b818110610fae5750610709565b5f8155600101610fa1565b9091508190610f98565b90607f16906106f7565b015190505f806104eb565b601f19821693835f52805f20915f5b86811061101f5750836001959610611007575b505050811b0190556104ff565b01515f1960f88460031b161c191690555f8080610ffa565b91926020600181928685015181550194019201610fe7565b825f5260205f20601f830160051c81019160208410611072575b601f0160051c01905b81811061106757506104d1565b5f815560010161105a565b9091508190611051565b90607f16906104bf565b015190505f806102aa565b601f19821693835f52805f20915f5b8681106110d857508360019596106110c0575b505050811b0190556102be565b01515f1960f88460031b161c191690555f80806110b3565b919260206001819286850151815501940192016110a0565b825f5260205f20601f830160051c8101916020841061112b575b601f0160051c01905b8181106111205750610290565b5f8155600101611113565b909150819061110a565b90607f169061027e565b60405162461bcd60e51b815260206004820152600b60248201526a125b9d985b1a590814d09560aa1b6044820152606490fd5b62461bcd60e51b815260206004820152600f60248201526e496e76616c6964205374616b696e6760881b6044820152606490fd5b631e4fbdf760e01b5f525f60045260245ffd5b5f80fd5b6040519061010082016001600160401b03811183821017610e4757604052565b6040519190601f01601f191682016001600160401b03811183821017610e4757604052565b51906001600160a01b03821682036111b957565b9060ff801983541691151516179055565b919060076112336111bd565b678ac7230489e800008152670de0b6b3a76400006020808301918252600a6040840181815260026060860181815260016080880181815260a0890195865260c0890191825260e089019c8d525f5160206141eb5f395f51905f525f529290955295517fe7952ca73c012fd94dc1983a49b24a9ff27c985c27245c669928b72e5714189a90815594517fe7952ca73c012fd94dc1983a49b24a9ff27c985c27245c669928b72e5714189b5590517fe7952ca73c012fd94dc1983a49b24a9ff27c985c27245c669928b72e5714189c5593517fe7952ca73c012fd94dc1983a49b24a9ff27c985c27245c669928b72e5714189d5592517fe7952ca73c012fd94dc1983a49b24a9ff27c985c27245c669928b72e5714189e5591517fe7952ca73c012fd94dc1983a49b24a9ff27c985c27245c669928b72e5714189f55905161139b9015157fe7952ca73c012fd94dc1983a49b24a9ff27c985c27245c669928b72e571418a0611216565b01925192835160018060401b038111610e47578154600181811c91168015611506575b6020821014610e2957601f81116114c1575b50602094601f8211600114611460579481929394955f92611455575b50508160011b915f199060031b1c19161790555b5f5160206141eb5f395f51905f525f5260106020527f01b4e3122866af6b78c3743e9fa35f8de4551fa2682a4b0c7ba5b7d01fb5fc4880546001600160a01b0319166001600160a01b03909216919091179055565b015190505f806113ec565b601f19821695835f52805f20915f5b8881106114a957508360019596979810611491575b505050811b019055611400565b01515f1960f88460031b161c191690555f8080611484565b9192602060018192868501518155019401920161146f565b825f5260205f20601f830160051c810191602084106114fc575b601f0160051c01905b8181106114f157506113d0565b5f81556001016114e4565b90915081906114db565b90607f16906113be56fe60806040526004361015610011575f80fd5b5f3560e01c806306a36aee146121ff57806307cf0ee9146121e55780630ab0c75e14611df357806310fdfea714611db957806311c85b0b14611d8157806312d9a6ad14610a0557806315de32ca14611d2557806317e1c595146118d657806319c46e81146118925780631cae04121461184457806326d9815c146117ec5780632c333e251461175257806336db9caf1461170e57806343e6a160146116e75780634b8b8a6e146116bd57806359dc9126146116755780636229738c146115ef57806362970f9b14611530578063669d7762146111455780636acb091f14610ef9578063715018a614610eb5578063727b52a514610b625780637f52815514610b1a578063826600ce14610ad657806386166d5d14610a755780638da5cb5b14610a4e57806391d1485414610a05578063920983fb146109c55780639b1465a31461098b578063a2d0020e14610964578063aa9e8cf714610932578063af5eda0214610908578063b5e936ab146107e8578063b991118f1461075e578063bf0cb04214610724578063bf28c98a146106e7578063c8ee23ef146106a3578063d727cbd414610642578063d84951b9146103b2578063e74c7bd71461037a578063e97630631461035e578063f2fde38b146102ec578063f538e1dc1461024c5763ffa1ad74146101fd575f80fd5b34610248575f3660031901126102485761024460405161021e604082612429565b60058152640332e302e360dc1b602082015260405191829160208352602083019061244c565b0390f35b5f80fd5b34610248576020366003190112610248576004355f52600260205260405f2080546102446007600184015493600281015460038201546004830154906005840154926102b160ff600687015416956102aa6040518099819301612371565b0387612429565b6040519889988952602089015260408801526060870152608086015260a0850152151560c084015261010060e084015261010083019061244c565b3461024857602036600319011261024857610305612270565b61030d612691565b6001600160a01b0316801561034b575f80546001600160a01b03198116831782556001600160a01b0316905f516020612c055f395f51905f529080a3005b631e4fbdf760e01b5f525f60045260245ffd5b34610248575f3660031901126102485760206040516175308152f35b34610248576020366003190112610248576001600160a01b0361039b612270565b165f52600c602052602060405f2054604051908152f35b34610248576040366003190112610248576004356024356001600160401b0381116102485780360390610100600319830112610248575f838152601060205260409020546001600160a01b0316330361060e57825f52600260205260405f209181600401359283815560248301358060018301556044840135806002840155606485013580600385015560848601359081600486015560a48701359283600587015560c488013594851515968787036102485780610481886006600794019060ff801983541691151516179055565b0160e48a0135986022190189121561024857888a016004810135906001600160401b038211610248578136036024820113610248576104ca826104c48554612339565b8561259a565b5f90601f83116001146105a3576104eb92915f9183610595575b50506125e9565b90555b6040519960408b5260408b015260608a0152608089015260a088015260c087015260e08601525061010084015201906024600483013592019160018060401b038111610248578036038313610248578181610160927ff9ac505d807e2451357e4b230cb299623579d310261f80013bc89bf5b108b10b9561010061012085015281610140850152848401375f828201840152426020830152601f01601f19168101030190a2005b016024013590508f806104e4565b601f19831691845f5260205f20925f5b8181106105f357509084600195949392106105d6575b505050811b0190556104ee565b6024910101355f19600384901b60f8161c191690558e80806105c9565b602484840101358555600190940193602092830192016105b3565b60405162461bcd60e51b815260206004820152600c60248201526b155b985d5d1a1bdc9a5e995960a21b6044820152606490fd5b34610248576020366003190112610248576004356001600160401b0381116102485761067460209136906004016124c9565b8160405191805191829101835e600890820190815281900382019020546040516001600160a01b039091168152f35b34610248576040366003190112610248576106bc612286565b6004355f52600460205260405f209060018060a01b03165f52602052602060405f2054604051908152f35b34610248576020366003190112610248576001600160a01b03610708612270565b165f52600e602052602060ff60405f2054166040519015158152f35b34610248575f3660031901126102485760206040517ff86d13979a91272f2c54c4147e588ecbeaad32dd1e0a5332a77356847049a70e8152f35b3461024857602036600319011261024857600435601154811015610248576107859061253d565b508054610244600460018060a01b036001850154169360028101546107c06003830154926107b96040518096819301612371565b0384612429565b604051958695865260208601526040850152606084015260a0608084015260a083019061244c565b3461024857602036600319011261024857606060e0604051610809816123f2565b5f81525f60208201525f60408201525f838201525f60808201525f60a08201525f60c082015201526004355f52600260205260405f2060405161084b816123f2565b815481526102446007600184015493602084019485526002810154604085019081526003820154606086019081526004830154906080870191825260058401549260a088019384526108b860ff6006870154169560c08a0196151587526102aa6040518099819301612371565b60e0880195865260405198899860208a525160208a01525160408901525160608801525160808701525160a08601525160c085015251151560e0840152516101008084015261012083019061244c565b34610248576020366003190112610248576004355f52600d602052602060405f2054604051908152f35b34610248576020366003190112610248576004355f526010602052602060018060a01b0360405f205416604051908152f35b34610248575f3660031901126102485760206040515f516020612be55f395f51905f528152f35b34610248575f3660031901126102485760206040517f6fb2b25080d21c908f32ff8ff99eb1d552c210854f7de48a40406764c09c68f88152f35b34610248576020366003190112610248576001600160a01b036109e6612270565b165f52600a602052602060018060a01b0360405f205416604051908152f35b3461024857604036600319011261024857610a1e612286565b6004355f52600360205260405f209060018060a01b03165f52602052602060ff60405f2054166040519015158152f35b34610248575f366003190112610248575f546040516001600160a01b039091168152602090f35b34610248576020366003190112610248576004356001600160401b03811161024857610aa760209136906004016124c9565b8160405191805191829101835e600990820190815281900382019020546040516001600160a01b039091168152f35b34610248575f366003190112610248576040517f00000000000000000000000000000000000000000000000000000000000000006001600160a01b03168152602090f35b3461024857610b28366122b0565b905f52600560205260405f20805482101561024857602091610b4991612470565b905460405160039290921b1c6001600160a01b03168152f35b3461024857602036600319011261024857600435610b7e6126b7565b5f81815260036020908152604080832033845290915290205460ff1615610e9f575f81815260046020908152604080832033808552818452828520805487875260038652848720928752918552838620805460ff19169055919093529290925590519190610beb8361240e565b818352602083019233845260408101908282526060810194428652604095865193610c168886612429565b6004855263115e1a5d60e21b602086015260808401948552601154600160401b811015610df657806001610c4d920160115561253d565b939093610e8c579351835592516001830180546001600160a01b0319166001600160a01b039290921691909117905591516002820155905160038201559051805160049290920191906001600160401b038211610df657610cb2826104c48554612339565b602090601f8311600114610e2957610cd392915f9183610e1e5750506125e9565b90555b335f526012602052825f20601154905f198201918211610e0a578054600160401b811015610df657610d0d91600182018155612470565b81545f1960039290921b91821b191692901b919091179055825163374e4d7360e01b8152336004820152602481018390526020816044815f7f00000000000000000000000000000000000000000000000000000000000000006001600160a01b03165af1908115610dec575f91610dad575b50610d98905f516020612ba55f395f51905f5292612684565b9280519384524260208501523393a360018055005b90506020813d602011610de4575b81610dc860209383612429565b8101031261024857515f516020612ba55f395f51905f52610d7f565b3d9150610dbb565b84513d5f823e3d90fd5b634e487b7160e01b5f52604160045260245ffd5b634e487b7160e01b5f52601160045260245ffd5b0151905087806104e4565b90601f19831691845f52815f20925f5b818110610e745750908460019594939210610e5c575b505050811b019055610cd6565b01515f1960f88460031b161c19169055868080610e4f565b92936020600181928786015181550195019301610e39565b634e487b7160e01b5f525f60045260245ffd5b633a401ef360e21b5f526004523360245260445ffd5b34610248575f36600319011261024857610ecd612691565b5f80546001600160a01b0319811682556001600160a01b03165f516020612c055f395f51905f528280a3005b34610248576080366003190112610248576004356001600160401b03811161024857610f29903690600401612499565b906024356001600160401b03811161024857610f49903690600401612499565b9092604435906064356001600160401b03811161024857610f6e9036906004016122c6565b5050610f786126b7565b335f52600e60205260ff60405f20541615611100578281036110c9575f5b818110610fa35760018055005b610fae818387612674565b356001600160a01b038116919082900361024857815f52600c60205260405f20548411156110c057815f52600b60205260405f205491610fef82878a612674565b35928084111561106d5760646110058286612684565b1161104d575b505f516020612c655f395f51905f5260406001945b835f52600b60205280825f2055835f52600c60205287825f20558151908152876020820152a25b01610f96565b925060648301809311610e0a575f516020612c655f395f51905f5261100b565b83811161108e575b505f516020612c655f395f51905f526040600194611020565b606461109a8583612684565b111561107557606319810193508311610e0a575f516020612c655f395f51905f52611075565b60019150611047565b60405162461bcd60e51b815260206004820152600f60248201526e098cadccee8d040dad2e6dac2e8c6d608b1b6044820152606490fd5b60405162461bcd60e51b815260206004820152601e60248201527f556e617574686f72697a65642052657075746174696f6e20536f7572636500006044820152606490fd5b3461024857611153366122f3565b61115e9392936126b7565b825f52600260205260405f20604051611176816123f2565b8154815260018201549160208201928352600281015460408301526003810154606083015260048101546080830152600581015460a083015260076111dd60ff6006840154169260c0850193151584526111d66040518094819301612371565b0382612429565b60e0830152511561151d57845f52600360205260405f2060018060a01b0387165f5260205260ff60405f2054166114fa57611219838587612879565b90518082106114e457505f8581526003602090815260408083206001600160a01b038a16808552908352818420805460ff191660011790558884526004835281842090845282528083208490558783526005909152902061127b908790612559565b5f8581526007602090815260408083206001600160a01b038a1684529091529020906001600160401b038411610df65786906112bb856104c48554612339565b5f9285601f811160011461147a57806112df91602095965f9161146f575b506125e9565b90555b8351604051635f7d2b8760e11b8152938492839261130692918b83600487016125fb565b03815f7f00000000000000000000000000000000000000000000000000000000000000006001600160a01b03165af1801561143557611440575b5061136d604061135284868989612a42565b815180938192631f1f342160e11b8352898b6004850161264d565b03815f7f00000000000000000000000000000000000000000000000000000000000000006001600160a01b03165af1928315611435575f516020612c455f395f51905f52946040946113e8935f91611407575b505f888152600660209081528782206001600160a01b038c1683529052869020558787612ab3565b5181519081524260208201526001600160a01b0390941693a360018055005b6114279150863d881161142e575b61141f8183612429565b81019061262e565b50896113c0565b503d611415565b6040513d5f823e3d90fd5b6020813d602011611467575b8161145960209383612429565b810103126102485751611340565b3d915061144c565b90508901358c6112d9565b50601f19861693815f5260205f2090875f5b8781106114c6575060209596106114ad575b5050600186811b0190556112e2565b8801355f19600389901b60f8161c19169055898061149e565b8a83013584558c96506001909301926020928301928a92500161148c565b906322df051360e11b5f5260045260245260445ffd5b631b753c1b60e21b5f90815260048690526001600160a01b038716602452604490fd5b84631b4b909b60e21b5f5260045260245ffd5b3461024857602036600319011261024857611549612270565b5060206040516115598282612429565b5f81526040519082820192808352815180945260408301938160408260051b8601019301915f955b82871061158e5785850386f35b9091929382806115df600193603f198a820301865260a060808a51805184528780841b038682015116868501526040810151604085015260608101516060850152015191816080820152019061244c565b9601920196019592919092611581565b3461024857604036600319011261024857611608612270565b6024359081151590818303610248577f6be30291a8f228c9342613e5e66df1a1b85aa570ac1bca9219f3ac7b7f73bbf39161166c602092611647612691565b60018060a01b031694855f52600e845260405f209060ff801983541691151516179055565b604051908152a2005b34610248576020366003190112610248576004355f52600f6020526102446111d66116a960405f2060405192838092612371565b60405191829160208352602083019061244c565b34610248576020366003190112610248576004355f526005602052602060405f2054604051908152f35b34610248575f3660031901126102485760206040515f516020612bc55f395f51905f528152f35b3461024857604036600319011261024857611727612286565b6004355f52600660205260405f209060018060a01b03165f52602052602060405f2054604051908152f35b34610248576020366003190112610248576001600160a01b03611773612270565b165f908152600b602052604090205460019061026281106117a957505060065b5f52600d602052602060405f2054604051908152f35b60e981106117bb57505060055b611793565b605981106117cc5750506004611793565b602281106117dd5750506003611793565b600d116117b657506002611793565b3461024857604036600319011261024857611805612270565b6001600160a01b03165f908152601260205260409020805460243591908210156102485760209161183591612470565b90549060031b1c604051908152f35b346102485760403660031901126102485761185d612286565b6004355f52600760205260405f209060018060a01b03165f526020526102446111d66116a960405f2060405192838092612371565b34610248575f366003190112610248576040517f00000000000000000000000000000000000000000000000000000000000000006001600160a01b03168152602090f35b34610248576118e4366122f3565b926118f09291926126b7565b805f52600260205260405f2060405194611909866123f2565b8154865260018201549160208701928352600281015460408801526003810154606088015260048101546080880152600581015460a0880152600761196960ff6006840154169260c08a0193151584526111d66040518094819301612371565b60e08801525115611d1257825f52600360205260405f2060018060a01b0385165f5260205260ff60405f205416611cf357335f9081525f516020612c255f395f51905f52602052604090205460ff1615611cb3576119c8818685612879565b9551808710611c9d57505f8381526003602090815260408083206001600160a01b038816808552908352818420805460ff1916600117905586845260048352818420908452825280832089905585835260059091529020611a2a908590612559565b5f8381526007602090815260408083206001600160a01b038816845290915290206001600160401b038211610df657611a6d82611a678354612339565b8361259a565b5f601f8311600114611c345796602091611a928480611ab69b5f91611c2957506125e9565b90555b8351604051635f7d2b8760e11b815298899283923391898b600487016125fb565b03815f7f00000000000000000000000000000000000000000000000000000000000000006001600160a01b03165af1801561143557611bf6575b611b1e95506040611b0382878787612a42565b8151809881926362c00b1f60e11b835287896004850161264d565b03815f7f00000000000000000000000000000000000000000000000000000000000000006001600160a01b03165af1948515611435576020965f96611bbc575b5091611b986040925f516020612c455f395f51905f5294865f5260068a52845f2060018060a01b0389165f528a5288855f20558787612ab3565b51815190815242878201526001600160a01b0390941693a360018055604051908152f35b5f516020612c455f395f51905f5293919650604092611bea611b9892853d871161142e5761141f8183612429565b50979294509250611b5e565b6020863d602011611c21575b81611c0f60209383612429565b8101031261024857611b1e9550611af0565b3d9150611c02565b90508a01358c6112d9565b601f19831690825f5260205f20915f5b818110611c855750916020939185611ab69b9410611c6c575b5050600184811b019055611a95565b8901355f19600387901b60f8161c191690558980611c5d565b9192602060018192868d013581550194019201611c44565b866322df051360e11b5f5260045260245260445ffd5b60405162461bcd60e51b815260206004820152601860248201527743616c6c6572206d75737420626520436f6d6d756e69747960401b6044820152606490fd5b5050631b753c1b60e21b5f5260045260018060a01b031660245260445ffd5b82631b4b909b60e21b5f5260045260245ffd5b34610248576040366003190112610248577f7e684e0b76ed13bc9cf7e4fbac7d11873036be9c9a83f9958382721eeda460106040600435602435611d67612691565b815f52600d60205280835f205582519182526020820152a1005b34610248576020366003190112610248576001600160a01b03611da2612270565b165f52600b602052602060405f2054604051908152f35b34610248575f3660031901126102485760206040517f2024516755f401845808190bb830b0e4523d0df0845503cab52130a794699a0f8152f35b34610248576040366003190112610248576004356024356001600160401b03811161024857611e269036906004016122c6565b611e319291926126b7565b815f52600260205260405f209060405193611e4b856123f2565b8254855260018301549260208601938452600281015460408701526003810154606087015260048101546080870152600581015460a08701526007611eab60ff6006840154169260c0890193151584526111d66040518094819301612371565b60e087015251156121d2575f84815260036020908152604080832033845290915290205460ff166121bb57611ee1828286612879565b94518086106121a557505f84815260036020908152604080832033808552908352818420805460ff191660011790558784526004835281842081855283528184208990558784526005909252909120611f3a9190612559565b5f8481526007602090815260408083203384529091529020946001600160401b038311610df657611f7583611f6f8854612339565b8861259a565b5f95601f841160011461213b5790602091611f9d8580611fc198999a5f9161213057506125e9565b90555b8551604051635f7d2b8760e11b8152958692839233918b83600487016125fb565b03815f7f00000000000000000000000000000000000000000000000000000000000000006001600160a01b03165af18015611435576120fd575b6120299250604061200e83833389612a42565b815180958192631f1f342160e11b835289336004850161264d565b03815f7f00000000000000000000000000000000000000000000000000000000000000006001600160a01b03165af1801561143557612090935f916120dd575b50855f52600660205260405f2060018060a01b0333165f5260205260405f20553385612ab3565b51604051908152426020820152815f516020612c455f395f51905f5260403393a3600180555f52600660205260405f2060018060a01b0333165f52602052602060405f2054604051908152f35b6120f6915060403d60401161142e5761141f8183612429565b5086612069565b6020833d602011612128575b8161211660209383612429565b81010312610248576120299250611ffb565b3d9150612109565b90508601358b6112d9565b601f198416815f5260205f20905f5b81811061218d575090611fc196979886602095949310612174575b5050600185811b019055611fa0565b8501355f19600388901b60f8161c191690558880612165565b858a013583556020998a01996001909301920161214a565b856322df051360e11b5f5260045260245260445ffd5b83631b753c1b60e21b5f526004523360245260445ffd5b83631b4b909b60e21b5f5260045260245ffd5b34610248576121f3366122b0565b505060206040515f8152f35b3461024857602036600319011261024857612218612270565b5060405160206122288183612429565b5f82525f368137604051918183928301818452825180915281604085019301915f5b82811061225957505050500390f35b83518552869550938101939281019260010161224a565b600435906001600160a01b038216820361024857565b602435906001600160a01b038216820361024857565b35906001600160a01b038216820361024857565b6040906003190112610248576004359060243590565b9181601f84011215610248578235916001600160401b038311610248576020838186019501011161024857565b606060031982011261024857600435916024356001600160a01b03811681036102485791604435906001600160401b03821161024857612335916004016122c6565b9091565b90600182811c92168015612367575b602083101461235357565b634e487b7160e01b5f52602260045260245ffd5b91607f1691612348565b5f929181549161238083612339565b80835292600181169081156123d5575060011461239c57505050565b5f9081526020812093945091925b8383106123bb575060209250010190565b6001816020929493945483858701015201910191906123aa565b915050602093945060ff929192191683830152151560051b010190565b61010081019081106001600160401b03821117610df657604052565b60a081019081106001600160401b03821117610df657604052565b601f909101601f19168101906001600160401b03821190821017610df657604052565b805180835260209291819084018484015e5f828201840152601f01601f1916010190565b8054821015612485575f5260205f2001905f90565b634e487b7160e01b5f52603260045260245ffd5b9181601f84011215610248578235916001600160401b038311610248576020808501948460051b01011161024857565b81601f82011215610248578035906001600160401b038211610df657604051926124fd601f8401601f191660200185612429565b8284526020838301011161024857815f926020809301838601378301015290565b60208091604051928184925191829101835e8101600881520301902090565b6011548110156124855760115f52600560205f20910201905f90565b8054600160401b811015610df65761257691600182018155612470565b81546001600160a01b0393841660039290921b91821b9390911b1916919091179055565b601f82116125a757505050565b5f5260205f20906020601f840160051c830193106125df575b601f0160051c01905b8181106125d4575050565b5f81556001016125c9565b90915081906125c0565b8160011b915f199060031b1c19161790565b6001600160a01b039182168152602081019290925260408201929092526060810192909252909116608082015260a00190565b9190826040910312610248576020825192015180151581036102485790565b612671939260609260018060a01b031682526020820152816040820152019061244c565b90565b91908110156124855760051b0190565b91908203918211610e0a57565b5f546001600160a01b031633036126a457565b63118cdaa760e01b5f523360045260245ffd5b6002600154146126c8576002600155565b633ee5aeb560e01b5f5260045ffd5b602081830312610248578035906001600160401b03821161024857019060a082820312610248576040519161270b8361240e565b6127148161229c565b83526127226020820161229c565b602084015260408101356001600160401b03811161024857826127469183016124c9565b604084015260608101356001600160401b0381116102485760809261276c9183016124c9565b60608401520135608082015290565b602081830312610248578035906001600160401b03821161024857019060c082820312610248576040519160c083016001600160401b03811184821017610df65760405280356001600160401b03811161024857826127db9183016124c9565b835260208101356001600160401b03811161024857826127fc9183016124c9565b602084015260408101356001600160401b03811161024857826128209183016124c9565b604084015260608101356001600160401b03811161024857826128449183016124c9565b606084015260808101356001600160401b0381116102485760a09261286a9183016124c9565b6080840152013560a082015290565b92915f5f516020612be55f395f51905f52850361294a57509061289e9181019061277b565b805151156129145780516001600160a01b03906128ba9061251e565b54166128e15760a00151915b82156128cf5750565b9091505f52600260205260405f205490565b6040516305519d6f60e51b815260206004820152600a6024820152692730b6b2903a30b5b2b760b11b6044820152606490fd5b6040516305519d6f60e51b815260206004820152600d60248201526c13985b59481c995c5d5a5c9959609a1b6044820152606490fd5b5f516020612bc55f395f51905f5285036129f557509061296c918101906126d7565b5f516020612be55f395f51905f525f90815260036020908152828101516001600160a01b031682525f516020612c255f395f51905f529052604090205460ff16156129bb5760800151916128c6565b6040516305519d6f60e51b8152602060048201526011602482015270496e76616c696420636f6d6d756e69747960781b6044820152606490fd5b93919060208114612a08575b50506128c6565b8192945090602091810103126102485735915f80612a01565b6001600160a01b0390911681526040602082018190525f9082015260600190565b909291905f516020612bc55f395f51905f5214612a7f575050612671612a719160405192839160208301612a21565b03601f198101835282612429565b612a719250612671916001600160a01b0391602091612aa191908101906126d7565b01511660405192839160208301612a21565b909291905f516020612be55f395f51905f528103612b46575080602092612adb92019061277b565b612ae5815161251e565b80546001600160a01b0319166001600160a01b0385161790550151805180612b0c57505050565b60209181839260405194859301835e60099082019081520301902080546001600160a01b0319166001600160a01b03909216919091179055565b5f516020612bc55f395f51905f5214612b5e57505050565b6001600160a01b0391612b7491908101906126d7565b51165f908152600a6020526040812080546001600160a01b0319166001600160a01b03909316929092179091555056fe0d9361411a652b66cd4aed24a96d36c0b048899896c927d879a9d3ba2790d9c60c34ecc75d3bf122e0609d2576e167f53fb42429262ce8c9b33cab91ff670e3ae94d78b6d8fb99b2c21131eb4552924a60f564d8515a3cc90ef300fc9735c0748be0079c531659141344cd1fd0a4f28419497f9722a3daafe3b4186f6b6457e0ff2ee81dab119a3c44ab55016c33ff3eb0f6d539478c634479d44f3f915202dd2c48d754bbf59f20e71c13710fac35aa1ea020da58dcbb366de0ef7f75c9377dbb42fde0252fd03324102c3666f457311508c4dd05f96e66e0fd26f0c28e8542a264697066735822122072232dc262e8a52e12b5e9608b81e622bb5040cb1faba61332d746889949af7964736f6c634300081c00336fb2b25080d21c908f32ff8ff99eb1d552c210854f7de48a40406764c09c68f8e94d78b6d8fb99b2c21131eb4552924a60f564d8515a3cc90ef300fc9735c0742024516755f401845808190bb830b0e4523d0df0845503cab52130a794699a0ff86d13979a91272f2c54c4147e588ecbeaad32dd1e0a5332a77356847049a70e3aa2e9509f29532b71f822e18bcde843a8070a508d564188ec8a6adf59eff28a","linkReferences":{}},"methodIdentifiers":{"GTOKEN_STAKING()":"826600ce","MYSBT()":"19c46e81","ROLE_COMMUNITY()":"a2d0020e","ROLE_ENDUSER()":"43e6a160","ROLE_KMS()":"9b1465a3","ROLE_PAYMASTER_AOA()":"bf0cb042","ROLE_PAYMASTER_SUPER()":"10fdfea7","VERSION()":"ffa1ad74","VERSION_CODE()":"e9763063","accountToUser(address)":"920983fb","batchUpdateGlobalReputation(address[],uint256[],uint256,bytes)":"6acb091f","burnHistory(uint256)":"b991118f","calculateExitFee(bytes32,uint256)":"07cf0ee9","checkRole(bytes32,address)":"12d9a6ad","communityByENSV3(string)":"86166d5d","communityByNameV3(string)":"d727cbd4","configureRole(bytes32,(uint256,uint256,uint256,uint256,uint256,uint256,bool,string))":"d84951b9","creditTierConfig(uint256)":"af5eda02","exitRole(bytes32)":"727b52a5","getBurnHistory(address)":"62970f9b","getCreditLimit(address)":"2c333e25","getRoleConfig(bytes32)":"b5e936ab","getRoleUserCount(bytes32)":"4b8b8a6e","getUserRoles(address)":"06a36aee","globalReputation(address)":"11c85b0b","hasRole(bytes32,address)":"91d14854","isReputationSource(address)":"bf28c98a","lastReputationEpoch(address)":"e74c7bd7","owner()":"8da5cb5b","proposedRoleNames(bytes32)":"59dc9126","registerRole(bytes32,address,bytes)":"669d7762","registerRoleSelf(bytes32,bytes)":"0ab0c75e","renounceOwnership()":"715018a6","roleConfigs(bytes32)":"f538e1dc","roleMembers(bytes32,uint256)":"7f528155","roleMetadata(bytes32,address)":"1cae0412","roleOwners(bytes32)":"aa9e8cf7","roleSBTTokenIds(bytes32,address)":"36db9caf","roleStakes(bytes32,address)":"c8ee23ef","safeMintForRole(bytes32,address,bytes)":"17e1c595","setCreditTier(uint256,uint256)":"15de32ca","setReputationSource(address,bool)":"6229738c","transferOwnership(address)":"f2fde38b","userBurnHistory(address,uint256)":"26d9815c"},"id":25}