{"abi":[{"type":"constructor","inputs":[{"name":"_entryPoint","type":"address","internalType":"contract IEntryPoint"},{"name":"_owner","type":"address","internalType":"address"},{"name":"_registry","type":"address","internalType":"contract IRegistryV3"},{"name":"_apntsToken","type":"address","internalType":"address"},{"name":"_ethUsdPriceFeed","type":"address","internalType":"address"},{"name":"_protocolTreasury","type":"address","internalType":"address"}],"stateMutability":"nonpayable"},{"type":"function","name":"APNTS_TOKEN","inputs":[],"outputs":[{"name":"","type":"address","internalType":"address"}],"stateMutability":"view"},{"type":"function","name":"BLS_AGGREGATOR","inputs":[],"outputs":[{"name":"","type":"address","internalType":"address"}],"stateMutability":"view"},{"type":"function","name":"BPS_DENOMINATOR","inputs":[],"outputs":[{"name":"","type":"uint256","internalType":"uint256"}],"stateMutability":"view"},{"type":"function","name":"ETH_USD_PRICE_FEED","inputs":[],"outputs":[{"name":"","type":"address","internalType":"contract AggregatorV3Interface"}],"stateMutability":"view"},{"type":"function","name":"MAX_ETH_USD_PRICE","inputs":[],"outputs":[{"name":"","type":"int256","internalType":"int256"}],"stateMutability":"view"},{"type":"function","name":"MIN_ETH_USD_PRICE","inputs":[],"outputs":[{"name":"","type":"int256","internalType":"int256"}],"stateMutability":"view"},{"type":"function","name":"PRICE_CACHE_DURATION","inputs":[],"outputs":[{"name":"","type":"uint256","internalType":"uint256"}],"stateMutability":"view"},{"type":"function","name":"REGISTRY","inputs":[],"outputs":[{"name":"","type":"address","internalType":"contract IRegistryV3"}],"stateMutability":"view"},{"type":"function","name":"SERVICE_FEE_BPS","inputs":[],"outputs":[{"name":"","type":"uint256","internalType":"uint256"}],"stateMutability":"view"},{"type":"function","name":"SUPER_PAYMASTER_TREASURY","inputs":[],"outputs":[{"name":"","type":"address","internalType":"address"}],"stateMutability":"view"},{"type":"function","name":"aPNTsPriceUSD","inputs":[],"outputs":[{"name":"","type":"uint256","internalType":"uint256"}],"stateMutability":"view"},{"type":"function","name":"addStake","inputs":[{"name":"unstakeDelaySec","type":"uint32","internalType":"uint32"}],"outputs":[],"stateMutability":"payable"},{"type":"function","name":"configureOperator","inputs":[{"name":"xPNTsToken","type":"address","internalType":"address"},{"name":"treasury","type":"address","internalType":"address"},{"name":"exchangeRate","type":"uint256","internalType":"uint256"}],"outputs":[],"stateMutability":"nonpayable"},{"type":"function","name":"deposit","inputs":[{"name":"amount","type":"uint256","internalType":"uint256"}],"outputs":[],"stateMutability":"nonpayable"},{"type":"function","name":"deposit","inputs":[],"outputs":[],"stateMutability":"payable"},{"type":"function","name":"entryPoint","inputs":[],"outputs":[{"name":"","type":"address","internalType":"contract IEntryPoint"}],"stateMutability":"view"},{"type":"function","name":"executeSlashWithBLS","inputs":[{"name":"operator","type":"address","internalType":"address"},{"name":"level","type":"uint8","internalType":"enum SuperPaymasterV3.SlashLevel"},{"name":"proof","type":"bytes","internalType":"bytes"}],"outputs":[],"stateMutability":"nonpayable"},{"type":"function","name":"getAvailableCredit","inputs":[{"name":"user","type":"address","internalType":"address"}],"outputs":[{"name":"","type":"uint256","internalType":"uint256"}],"stateMutability":"view"},{"type":"function","name":"getDeposit","inputs":[],"outputs":[{"name":"","type":"uint256","internalType":"uint256"}],"stateMutability":"view"},{"type":"function","name":"notifyDeposit","inputs":[{"name":"amount","type":"uint256","internalType":"uint256"}],"outputs":[],"stateMutability":"nonpayable"},{"type":"function","name":"onTransferReceived","inputs":[{"name":"","type":"address","internalType":"address"},{"name":"from","type":"address","internalType":"address"},{"name":"value","type":"uint256","internalType":"uint256"},{"name":"","type":"bytes","internalType":"bytes"}],"outputs":[{"name":"","type":"bytes4","internalType":"bytes4"}],"stateMutability":"nonpayable"},{"type":"function","name":"operators","inputs":[{"name":"","type":"address","internalType":"address"}],"outputs":[{"name":"xPNTsToken","type":"address","internalType":"address"},{"name":"isConfigured","type":"bool","internalType":"bool"},{"name":"isPaused","type":"bool","internalType":"bool"},{"name":"_reserved","type":"uint80","internalType":"uint80"},{"name":"treasury","type":"address","internalType":"address"},{"name":"exchangeRate","type":"uint96","internalType":"uint96"},{"name":"aPNTsBalance","type":"uint256","internalType":"uint256"},{"name":"totalSpent","type":"uint256","internalType":"uint256"},{"name":"totalTxSponsored","type":"uint256","internalType":"uint256"},{"name":"reputation","type":"uint256","internalType":"uint256"}],"stateMutability":"view"},{"type":"function","name":"owner","inputs":[],"outputs":[{"name":"","type":"address","internalType":"address"}],"stateMutability":"view"},{"type":"function","name":"postOp","inputs":[{"name":"mode","type":"uint8","internalType":"enum IPaymaster.PostOpMode"},{"name":"context","type":"bytes","internalType":"bytes"},{"name":"actualGasCost","type":"uint256","internalType":"uint256"},{"name":"actualUserOpFeePerGas","type":"uint256","internalType":"uint256"}],"outputs":[],"stateMutability":"nonpayable"},{"type":"function","name":"protocolRevenue","inputs":[],"outputs":[{"name":"","type":"uint256","internalType":"uint256"}],"stateMutability":"view"},{"type":"function","name":"renounceOwnership","inputs":[],"outputs":[],"stateMutability":"nonpayable"},{"type":"function","name":"repayDebt","inputs":[{"name":"user","type":"address","internalType":"address"},{"name":"amount","type":"uint256","internalType":"uint256"}],"outputs":[],"stateMutability":"nonpayable"},{"type":"function","name":"setAPNTsToken","inputs":[{"name":"newAPNTsToken","type":"address","internalType":"address"}],"outputs":[],"stateMutability":"nonpayable"},{"type":"function","name":"setBLSAggregator","inputs":[{"name":"_bls","type":"address","internalType":"address"}],"outputs":[],"stateMutability":"nonpayable"},{"type":"function","name":"setOperatorPause","inputs":[{"name":"operator","type":"address","internalType":"address"},{"name":"paused","type":"bool","internalType":"bool"}],"outputs":[],"stateMutability":"nonpayable"},{"type":"function","name":"slashHistory","inputs":[{"name":"","type":"address","internalType":"address"},{"name":"","type":"uint256","internalType":"uint256"}],"outputs":[{"name":"timestamp","type":"uint256","internalType":"uint256"},{"name":"amount","type":"uint256","internalType":"uint256"},{"name":"reputationLoss","type":"uint256","internalType":"uint256"},{"name":"reason","type":"string","internalType":"string"},{"name":"level","type":"uint8","internalType":"enum SuperPaymasterV3.SlashLevel"}],"stateMutability":"view"},{"type":"function","name":"slashOperator","inputs":[{"name":"operator","type":"address","internalType":"address"},{"name":"level","type":"uint8","internalType":"enum SuperPaymasterV3.SlashLevel"},{"name":"penaltyAmount","type":"uint256","internalType":"uint256"},{"name":"reason","type":"string","internalType":"string"}],"outputs":[],"stateMutability":"nonpayable"},{"type":"function","name":"totalTrackedBalance","inputs":[],"outputs":[{"name":"","type":"uint256","internalType":"uint256"}],"stateMutability":"view"},{"type":"function","name":"transferOwnership","inputs":[{"name":"newOwner","type":"address","internalType":"address"}],"outputs":[],"stateMutability":"nonpayable"},{"type":"function","name":"unlockStake","inputs":[],"outputs":[],"stateMutability":"nonpayable"},{"type":"function","name":"updateReputation","inputs":[{"name":"operator","type":"address","internalType":"address"},{"name":"newScore","type":"uint256","internalType":"uint256"}],"outputs":[],"stateMutability":"nonpayable"},{"type":"function","name":"userDebts","inputs":[{"name":"","type":"address","internalType":"address"}],"outputs":[{"name":"","type":"uint256","internalType":"uint256"}],"stateMutability":"view"},{"type":"function","name":"validatePaymasterUserOp","inputs":[{"name":"userOp","type":"tuple","internalType":"struct PackedUserOperation","components":[{"name":"sender","type":"address","internalType":"address"},{"name":"nonce","type":"uint256","internalType":"uint256"},{"name":"initCode","type":"bytes","internalType":"bytes"},{"name":"callData","type":"bytes","internalType":"bytes"},{"name":"accountGasLimits","type":"bytes32","internalType":"bytes32"},{"name":"preVerificationGas","type":"uint256","internalType":"uint256"},{"name":"gasFees","type":"bytes32","internalType":"bytes32"},{"name":"paymasterAndData","type":"bytes","internalType":"bytes"},{"name":"signature","type":"bytes","internalType":"bytes"}]},{"name":"userOpHash","type":"bytes32","internalType":"bytes32"},{"name":"maxCost","type":"uint256","internalType":"uint256"}],"outputs":[{"name":"context","type":"bytes","internalType":"bytes"},{"name":"validationData","type":"uint256","internalType":"uint256"}],"stateMutability":"nonpayable"},{"type":"function","name":"withdraw","inputs":[{"name":"amount","type":"uint256","internalType":"uint256"}],"outputs":[],"stateMutability":"nonpayable"},{"type":"function","name":"withdrawProtocolRevenue","inputs":[{"name":"to","type":"address","internalType":"address"},{"name":"amount","type":"uint256","internalType":"uint256"}],"outputs":[],"stateMutability":"nonpayable"},{"type":"function","name":"withdrawStake","inputs":[{"name":"to","type":"address","internalType":"address payable"}],"outputs":[],"stateMutability":"nonpayable"},{"type":"function","name":"withdrawTo","inputs":[{"name":"to","type":"address","internalType":"address payable"},{"name":"amount","type":"uint256","internalType":"uint256"}],"outputs":[],"stateMutability":"nonpayable"},{"type":"event","name":"APNTsTokenUpdated","inputs":[{"name":"oldToken","type":"address","indexed":true,"internalType":"address"},{"name":"newToken","type":"address","indexed":true,"internalType":"address"}],"anonymous":false},{"type":"event","name":"DebtRecorded","inputs":[{"name":"user","type":"address","indexed":true,"internalType":"address"},{"name":"amount","type":"uint256","indexed":false,"internalType":"uint256"}],"anonymous":false},{"type":"event","name":"DebtRepaid","inputs":[{"name":"user","type":"address","indexed":true,"internalType":"address"},{"name":"amount","type":"uint256","indexed":false,"internalType":"uint256"}],"anonymous":false},{"type":"event","name":"OperatorConfigured","inputs":[{"name":"operator","type":"address","indexed":true,"internalType":"address"},{"name":"xPNTsToken","type":"address","indexed":false,"internalType":"address"},{"name":"treasury","type":"address","indexed":false,"internalType":"address"},{"name":"exchangeRate","type":"uint256","indexed":false,"internalType":"uint256"}],"anonymous":false},{"type":"event","name":"OperatorDeposited","inputs":[{"name":"operator","type":"address","indexed":true,"internalType":"address"},{"name":"amount","type":"uint256","indexed":false,"internalType":"uint256"}],"anonymous":false},{"type":"event","name":"OperatorPaused","inputs":[{"name":"operator","type":"address","indexed":true,"internalType":"address"}],"anonymous":false},{"type":"event","name":"OperatorSlashed","inputs":[{"name":"operator","type":"address","indexed":true,"internalType":"address"},{"name":"amount","type":"uint256","indexed":false,"internalType":"uint256"},{"name":"level","type":"uint8","indexed":false,"internalType":"enum SuperPaymasterV3.SlashLevel"}],"anonymous":false},{"type":"event","name":"OperatorUnpaused","inputs":[{"name":"operator","type":"address","indexed":true,"internalType":"address"}],"anonymous":false},{"type":"event","name":"OperatorWithdrawn","inputs":[{"name":"operator","type":"address","indexed":true,"internalType":"address"},{"name":"amount","type":"uint256","indexed":false,"internalType":"uint256"}],"anonymous":false},{"type":"event","name":"OwnershipTransferred","inputs":[{"name":"previousOwner","type":"address","indexed":true,"internalType":"address"},{"name":"newOwner","type":"address","indexed":true,"internalType":"address"}],"anonymous":false},{"type":"event","name":"ReputationUpdated","inputs":[{"name":"operator","type":"address","indexed":true,"internalType":"address"},{"name":"newScore","type":"uint256","indexed":false,"internalType":"uint256"}],"anonymous":false},{"type":"event","name":"TransactionSponsored","inputs":[{"name":"operator","type":"address","indexed":true,"internalType":"address"},{"name":"user","type":"address","indexed":true,"internalType":"address"},{"name":"aPNTsCost","type":"uint256","indexed":false,"internalType":"uint256"},{"name":"xPNTsCost","type":"uint256","indexed":false,"internalType":"uint256"}],"anonymous":false},{"type":"event","name":"UserReputationAccrued","inputs":[{"name":"user","type":"address","indexed":true,"internalType":"address"},{"name":"aPNTsValue","type":"uint256","indexed":false,"internalType":"uint256"}],"anonymous":false},{"type":"error","name":"AddressEmptyCode","inputs":[{"name":"target","type":"address","internalType":"address"}]},{"type":"error","name":"AddressInsufficientBalance","inputs":[{"name":"account","type":"address","internalType":"address"}]},{"type":"error","name":"FailedInnerCall","inputs":[]},{"type":"error","name":"OwnableInvalidOwner","inputs":[{"name":"owner","type":"address","internalType":"address"}]},{"type":"error","name":"OwnableUnauthorizedAccount","inputs":[{"name":"account","type":"address","internalType":"address"}]},{"type":"error","name":"ReentrancyGuardReentrantCall","inputs":[]},{"type":"error","name":"SafeERC20FailedOperation","inputs":[{"name":"token","type":"address","internalType":"address"}]}],"bytecode":{"object":"0x6101003461022b57601f612c4538819003918201601f19168301916001600160401b0383118484101761022f5780849260c09460405283398101031261022b5780516001600160a01b0381169182820361022b5761005f60208201610243565b60408201519092906001600160a01b038116810361022b5761008360608401610243565b9161009c60a061009560808701610243565b9501610243565b956001600160a01b038616908115610218575f80546001600160a01b031981168417825560405193916001600160a01b03909116907f8be0079c531659141344cd1fd0a4f28419497f9722a3daafe3b4186f6b6457e09080a3156101e157506080526001805566470de4df82000060065560a052600280546001600160a01b0319166001600160a01b0392831617905590811660c0528216156101da57505b60e0526040516129ed908161025882396080518181816103b30152818161045a01528181610504015281816107dc01528181610aee015281816110e8015281816114960152818161163b0152611a2f015260a0518181816108780152818161095a01528181610e0a01528181610f4101528181611256015281816119d80152611e05015260c051818181610aa9015261223d015260e05181610b330152f35b905061013b565b62461bcd60e51b8152602060048201526012602482015271125b9d985b1a5908115b9d1c9e541bda5b9d60721b6044820152606490fd5b631e4fbdf760e01b5f525f60045260245ffd5b5f80fd5b634e487b7160e01b5f52604160045260245ffd5b51906001600160a01b038216820361022b5756fe60806040526004361015610011575f80fd5b5f5f3560e01c806301a1bb4d14611aa35780630396cb6014611a0757806306433b1b146119c2578063079d2d421461175d57806313e7c9d8146116ab578063205c2878146116165780632e1a7d4d1461153f578063327266841461151f57806339788cd9146114fe57806352b7512c14611456578063539f51db1461143957806353a941a1146114005780635949a8f71461120b578063594a6f23146111ed57806361ad446e146111cf578063715018a61461118857806374f053c41461115f57806379e20bdc1461113c5780637af3816c1461111e5780637c627b21146110a0578063847807f214610eeb57806388a7ca5c14610d705780638da5cb5b14610d495780638e58021314610c0d578063a4b5328f14610b62578063ad961ea714610b1d578063b0d691fe14610ad8578063b0f0abe914610a93578063b6b55f251461090f578063b9b929fd14610830578063bb9fe6bf146107c0578063bc9591011461077b578063bfa5a1eb14610599578063c06f58e814610570578063c23a5cea146104df578063c399ec881461042d578063d0e30db01461039c578063d20727d7146102f0578063e1a45218146102d3578063ef7d87a3146102b7578063f2fde38b146102445763f5c91a08146101e8575f80fd5b3461024157604036600319011261024157610201611b42565b5f5160206128f85f395f51905f5260206024359261021d612706565b6001600160a01b03168085526003825260408086206005018590555193845292a280f35b80fd5b50346102415760203660031901126102415761025e611b42565b610266612706565b6001600160a01b031680156102a35781546001600160a01b03198116821783556001600160a01b03165f5160206129985f395f51905f528380a380f35b631e4fbdf760e01b82526004829052602482fd5b5034610241578060031936011261024157602060405160c88152f35b503461024157806003193601126102415760206040516127108152f35b50346102415760203660031901126102415761030a611b42565b610312612706565b6001600160a01b0316801561036557600280546001600160a01b0319811683179091556001600160a01b03167f75f4cc3f3f70100dc11e396f47f8af2dec5cf7ec94e06062222be779cf2f3dec8380a380f35b60405162461bcd60e51b815260206004820152600f60248201526e496e76616c6964206164647265737360881b6044820152606490fd5b5080600319360112610241576103b0612706565b807f00000000000000000000000000000000000000000000000000000000000000006001600160a01b0316803b1561042a57816024916040519283809263b760faf960e01b825230600483015234905af1801561041f5761040e5750f35b8161041891611c67565b6102415780f35b6040513d84823e3d90fd5b50fd5b50346102415780600319360112610241576040516370a0823160e01b8152306004820152906020826024817f00000000000000000000000000000000000000000000000000000000000000006001600160a01b03165afa9081156104d3579061049c575b602090604051908152f35b506020813d6020116104cb575b816104b660209383611c67565b810103126104c75760209051610491565b5f80fd5b3d91506104a9565b604051903d90823e3d90fd5b503461024157602036600319011261024157806104fa611b42565b610502612706565b7f00000000000000000000000000000000000000000000000000000000000000006001600160a01b031690813b1561056c5760405163611d2e7560e11b81526001600160a01b0390911660048201529082908290602490829084905af1801561041f5761040e5750f35b5050fd5b5034610241578060031936011261024157600a546040516001600160a01b039091168152602090f35b5034610241576080366003190112610241576105b3611b42565b602435600381101561077757606435836044356001600160401b038311610773575f5160206129385f395f51905f5260406106ac925f5160206128f85f395f51905f52966106076020973690600401611b6e565b959099610612612706565b6001600160a01b031680885260038952848820909a8b97908961063486611c8a565b856106f9575061069390878b600a955b600581019d8e888154115f146106f3579050610661888254611cf9565b90555b896106ca575b508b815260048e52209288519461068086611c38565b428652888e870152898601523691611cc3565b60608301526106a184611c8a565b83608083015261257c565b82519182526106ba81611c8a565b86820152a254604051908152a280f35b600201805482908b116106ec57506106e38a8254611cf9565b90555b5f61066a565b90556106e6565b55610664565b61070286611c8a565b8a6001870361071b576106939291508890601495610644565b909361072687611c8a565b6002871461073b575b61069392918991610644565b805460ff60a81b1916600160a81b17815560329450610693929189918c5f5160206129185f395f51905f528380a2915091925061072f565b5080fd5b8280fd5b503461024157602036600319011261024157610795611b42565b61079d612706565b600a80546001600160a01b0319166001600160a01b039290921691909117905580f35b50346102415780600319360112610241576107d9612706565b807f00000000000000000000000000000000000000000000000000000000000000006001600160a01b0316803b1561042a5781809160046040518094819363bb9fe6bf60e01b83525af1801561041f5761040e5750f35b50346102415760203660031901126102415761084a611b42565b604051632c333e2560e01b81526001600160a01b0391821660048201819052909291602090849060249082907f0000000000000000000000000000000000000000000000000000000000000000165afa90811561041f5782916108da575b602093508252600583526040822054908181115f146108d3576108cb9250611cf9565b604051908152f35b50506108cb565b90506020833d602011610907575b816108f560209383611c67565b810103126104c75760209251906108a8565b3d91506108e8565b50346102415760203660031901126102415760043561092c61272c565b604051632474521560e21b81525f5160206129785f395f51905f5260048201523360248201526020816044817f00000000000000000000000000000000000000000000000000000000000000006001600160a01b03165afa908115610a88578391610a59575b5015610a1a576002546040516323b872dd60e01b60208201526109de916001600160a01b03166109d9826109cb8630336024850161255a565b03601f198101845283611c67565b612806565b3382526003602052600260408320016109f8828254611db5565b90556040519081525f5160206129585f395f51905f5260203392a26001805580f35b60405162461bcd60e51b815260206004820152601760248201527613dc195c985d1bdc881b9bdd081c9959da5cdd195c9959604a1b6044820152606490fd5b610a7b915060203d602011610a81575b610a738183611c67565b810190611d76565b5f610992565b503d610a69565b6040513d85823e3d90fd5b50346102415780600319360112610241576040517f00000000000000000000000000000000000000000000000000000000000000006001600160a01b03168152602090f35b50346102415780600319360112610241576040517f00000000000000000000000000000000000000000000000000000000000000006001600160a01b03168152602090f35b50346102415780600319360112610241576040517f00000000000000000000000000000000000000000000000000000000000000006001600160a01b03168152602090f35b503461024157604036600319011261024157610b7c611b42565b602435610b87612706565b610b8f61272c565b6001600160a01b0382161561036557600c5491828211610bd157610bb682610bca94611cf9565b600c556002546001600160a01b031661274c565b6001805580f35b60405162461bcd60e51b8152602060048201526014602482015273496e73756666696369656e7420726576656e756560601b6044820152606490fd5b503461024157604036600319011261024157610c27611b42565b6001600160a01b0316815260046020526040812080546024359081101561077757610c5191611bd3565b5080549060018101549260028201549160038101916040519281815491610c7783611c00565b8087529260018116908115610d1e5750600114610ce1575b50505060048392610ca7610cce9560ff940385611c67565b0154169260405195869586526020860152604085015260a0606085015260a0840190611baf565b90610cd881611c8a565b60808301520390f35b9080935052602082205b818310610d045750508201602001600482610ca7610c8f565b600181602092949394548385890101520191019190610ceb565b60ff191660208089019190915293151560051b8701909301935060049250849150610ca79050610c8f565b5034610241578060031936011261024157546040516001600160a01b039091168152602090f35b503461024157608036600319011261024157610d8a611b42565b50610d93611b58565b90604435906064356001600160401b03811161077357610db7903690600401611b6e565b50506002546001600160a01b03163303610eb357604051632474521560e21b81525f5160206129785f395f51905f5260048201526001600160a01b039384166024820181905293602090829060449082907f0000000000000000000000000000000000000000000000000000000000000000165afa90811561041f578291610e94575b5015610a1a575f5160206129585f395f51905f529160026040838660209552600385522001610e6a828254611db5565b9055610e7881600b54611db5565b600b55604051908152a2604051632229f29760e21b8152602090f35b610ead915060203d602011610a8157610a738183611c67565b5f610e3a565b60405162461bcd60e51b815260206004820152601060248201526f27b7363c9020a8272a29afaa27a5a2a760811b6044820152606490fd5b503461024157606036600319011261024157610f05611b42565b610f0d611b58565b604051632474521560e21b81525f5160206129785f395f51905f5260048201523360248201526044803591906020908290817f00000000000000000000000000000000000000000000000000000000000000006001600160a01b03165afa908115611095578591611076575b5015610a1a576001600160a01b038316158015611065575b801561105d575b611020573380855260036020526040808620805460a085901b6001600160a01b0319166001600160a01b038088169190911760018401556001600160a81b031990911690871617600160a01b1790555190937fff8a1775e676e9fe3cc41088a092f762a9c36c13098d2a9c6a02d1814e0ecbd7939192839261101a928461255a565b0390a280f35b60405162461bcd60e51b815260206004820152601560248201527424b73b30b634b21031b7b73334b3bab930ba34b7b760591b6044820152606490fd5b508015610f98565b506001600160a01b03821615610f91565b61108f915060203d602011610a8157610a738183611c67565b5f610f79565b6040513d87823e3d90fd5b503461024157608036600319011261024157600435600381101561077357602435906001600160401b038211610777576110e161111b923690600401611b6e565b91611116337f00000000000000000000000000000000000000000000000000000000000000006001600160a01b031614611d1a565b6124cf565b80f35b50346102415780600319360112610241576020600c54604051908152f35b503461024157604036600319011261024157611156611b42565b50610bca61272c565b50346102415780600319360112610241576002546040516001600160a01b039091168152602090f35b50346102415780600319360112610241576111a1612706565b80546001600160a01b03198116825581906001600160a01b03165f5160206129985f395f51905f528280a380f35b50346102415780600319360112610241576020600b54604051908152f35b50346102415780600319360112610241576020600654604051908152f35b50346102415760203660031901126102415760043561122861272c565b604051632474521560e21b81525f5160206129785f395f51905f5260048201523360248201526020816044817f00000000000000000000000000000000000000000000000000000000000000006001600160a01b03165afa908115610a885783916113e1575b5015610a1a576002546040516370a0823160e01b815230600482015290602090829060249082906001600160a01b03165afa8015610a885783906113ad575b6112db9150600b5490611cf9565b8111611371573382526003602052600260408320016112fb828254611db5565b905561130981600b54611db5565b600b556040518181525f5160206129585f395f51905f5260203392a23382526005602052604082205480611340575b826001805580f35b8181111561136a57505b338252600560205261136160408320918254611cf9565b90555f80611338565b905061134a565b60405162461bcd60e51b815260206004820152601460248201527311195c1bdcda5d081b9bdd081d995c9a599a595960621b6044820152606490fd5b506020813d6020116113d9575b816113c760209383611c67565b810103126104c7576112db90516112cd565b3d91506113ba565b6113fa915060203d602011610a8157610a738183611c67565b5f61128e565b5034610241576020366003190112610241576020906040906001600160a01b03611428611b42565b168152600583522054604051908152f35b5034610241578060031936011261024157602060405161012c8152f35b503461024157606036600319011261024157600435906001600160401b038211610241576101206003198336030112610241576114f46114dc836114c4337f00000000000000000000000000000000000000000000000000000000000000006001600160a01b031614611d1a565b6114cc61272c565b6044359060243590600401611dc2565b60018055604051928392604084526040840190611baf565b9060208301520390f35b503461024157806003193601126102415760206040516509184e72a0008152f35b503461024157806003193601126102415760206040516402540be4008152f35b50346102415760203660031901126102415760043561155c61272c565b3382526003602052806002604084200154106115da5733825260036020526002604083200161158c828254611cf9565b90556002546115a790829033906001600160a01b031661274c565b6040519081527f4eea589c35918e3c4d8e0371a062a1d544e41d78fb522381678923b9cd6e6dfa60203392a26001805580f35b60405162461bcd60e51b8152602060048201526014602482015273496e73756666696369656e742062616c616e636560601b6044820152606490fd5b50346102415760403660031901126102415780611631611b42565b611639612706565b7f00000000000000000000000000000000000000000000000000000000000000006001600160a01b031690813b1561056c5760405163040b850f60e31b81526001600160a01b03909116600482015260248035908201529082908290604490829084905af1801561041f5761040e5750f35b503461024157602036600319011261024157610140906040906001600160a01b036116d4611b42565b168152600360205220805490600181015490600281015460038201549060056004840154930154936040519560018060a01b038116875260ff8160a01c161515602088015260ff8160a81c161515604088015260b01c606087015260018060a01b038116608087015260a01c60a086015260c085015260e0840152610100830152610120820152f35b503461024157606036600319011261024157611777611b42565b6024356003811015610777576044356001600160401b0381116119be576117a2903690600401611b6e565b600a549093906001600160a01b03163303611983575f5160206129385f395f51905f5292856117d082611c8a565b6001821490811561194657506001600160a01b038316875260036020526040872060020154600a9004926118cd91905b611834604096875199611813898c611c67565b600d8b526c088aca8408498a640a6d8c2e6d609b1b60208c01523691611cc3565b506001600160a01b031680895260036020528589209097909161185685611c8a565b84611926575060ff600a5b169161186c85611c8a565b60028514611910575b600581018a848254115f146119095750611890848254611cf9565b90555b856118e4575b508789526004602052858920908651926118b284611c38565b4284528660208501528784015260608301526106a184611c8a565b82519182526118db81611c8a565b6020820152a280f35b6002016118f2868254611cf9565b905561190085600c54611db5565b600c555f611899565b9055611893565b805460ff60a81b1916600160a81b178155611875565b61192f85611c8a565b1561193d5760ff6014611861565b60ff6032611861565b9261195083611c8a565b60028314611963575b906118cd91611800565b6001600160a01b0381168852600360205260408820600201549350611959565b60405162461bcd60e51b815260206004820152601360248201527227b7363c902126299020b3b3b932b3b0ba37b960691b6044820152606490fd5b8380fd5b50346102415780600319360112610241576040517f00000000000000000000000000000000000000000000000000000000000000006001600160a01b03168152602090f35b5060203660031901126104c75760043563ffffffff81168091036104c757611a2d612706565b7f00000000000000000000000000000000000000000000000000000000000000006001600160a01b031690813b156104c7575f90602460405180948193621cb65b60e51b8352600483015234905af18015611a9857611a8a575080f35b611a9691505f90611c67565b005b6040513d5f823e3d90fd5b346104c75760403660031901126104c757611abc611b42565b602435801515918282036104c757611ad2612706565b6001600160a01b03165f818152600360205260409020805460ff60a81b191660a89490941b60ff60a81b169390931790925515611b1c575f5160206129185f395f51905f525f80a2005b7fae02c1bd695006b6d891af37fdeefea45a10ebcc17071e3471787db4f17728855f80a2005b600435906001600160a01b03821682036104c757565b602435906001600160a01b03821682036104c757565b9181601f840112156104c7578235916001600160401b0383116104c757602083818601950101116104c757565b35906001600160a01b03821682036104c757565b805180835260209291819084018484015e5f828201840152601f01601f1916010190565b8054821015611bec575f52600560205f20910201905f90565b634e487b7160e01b5f52603260045260245ffd5b90600182811c92168015611c2e575b6020831014611c1a57565b634e487b7160e01b5f52602260045260245ffd5b91607f1691611c0f565b60a081019081106001600160401b03821117611c5357604052565b634e487b7160e01b5f52604160045260245ffd5b601f909101601f19168101906001600160401b03821190821017611c5357604052565b60031115611c9457565b634e487b7160e01b5f52602160045260245ffd5b6001600160401b038111611c5357601f01601f191660200190565b929192611ccf82611ca8565b91611cdd6040519384611c67565b8294818452818301116104c7578281602093845f960137010152565b91908203918211611d0657565b634e487b7160e01b5f52601160045260245ffd5b15611d2157565b60405162461bcd60e51b815260206004820152602760248201527f426173655061796d61737465723a2063616c6c6572206973206e6f7420456e746044820152661c9e541bda5b9d60ca1b6064820152608490fd5b908160209103126104c7575180151581036104c75790565b356001600160a01b03811681036104c75790565b81810292918115918404141715611d0657565b91908201809211611d0657565b90929192611dcf826127bb565b604051632474521560e21b81525f5160206129785f395f51905f5260048201526001600160a01b03918216602482018190525f967f0000000000000000000000000000000000000000000000000000000000000000909316939091602081604481885afa908115611a98575f916124b0575b501561247c57611e5085611d8e565b604051632474521560e21b81527f0c34ecc75d3bf122e0609d2576e167f53fb42429262ce8c9b33cab91ff670e3a60048201526001600160a01b039091166024820152602081604481885afa908115611a98575f91612491575b501561247c57815f52600360205260405f20916020611ec887611d8e565b604051632c333e2560e01b81526001600160a01b03909116600482015295869060249082905afa948515611a98575f95612448575b506001600160a01b03611f0f87611d8e565b165f52600560205260405f2054938486115f1461244157611f308587611cf9565b905b61012c611f4160085442611cf9565b111580612436575b1561222e57611f646007545b60ff60095460501c1692611da2565b9060120360ff8111611d065760ff16604d8111611d0657670de0b6b3a764000091611f9291600a0a90611da2565b0460065490811561221a57049580670de0b6b3a7640000611fba600188015460a01c8a611da2565b049610159081612210575b506121f0578511918261217c575b50825460ff8160a01c16156121655760a81c60ff1661214f5760028301805486811061212f578661200391611cf9565b905560038301612014868254611db5565b905561202285600c54611db5565b600c556004830180545f19811461211b5760010190556001600160a01b0361204987611d8e565b16907fcde7e91a718e2439d8ff2a679ad52713e82a37b72622fb530c8c41039fdd5bf060408051888152876020820152a36001600160a01b0361208b86611d8e565b167fd2d5a1362bcd0d05f9c4cdcf180554d9198405ba5a938a59bf2ae807acf90eba6020604051878152a261210257546001600160a01b0316926120ce90611d8e565b90604051936020850152604084015260018060a01b031660608301526080820152608081526120fe60a082611c67565b9190565b50505050604051612114602082611c67565b8281529190565b634e487b7160e01b8a52601160045260248afd5b50505050505050509060405190612147602083611c67565b815290600190565b5050505050509060405190612147602083611c67565b505050505050509060405190612147602083611c67565b83546001600160a01b03169061219188611d8e565b90823b156104c757604051635c1d516f60e11b81526001600160a01b039092166004830152602482018790526044820152905f908290606490829084905af18015611a985715611fd3576121e89198505f90611c67565b5f965f611fd3565b505050505050509050604051612207602082611c67565b5f815290600190565b905015155f611fc5565b634e487b7160e01b5f52601260045260245ffd5b604051633fabe5a360e21b81527f00000000000000000000000000000000000000000000000000000000000000006001600160a01b03169060a081600481855afa918215611a98575f915f925f915f956123dd575b506001600160501b03908116941684119081156123c7575b5080156123b8575b80156123a9575b6123755760206004916040519283809263313ce56760e01b82525afa908115611a98575f91612339575b506040516080810193906001600160401b03851181861017611c5357611f6494604052838152426020820152816040820152606060ff841691015282600755426008556009549160ff60501b9060501b169160018060581b0319161717600955611f55565b90506020813d60201161236d575b8161235460209383611c67565b810103126104c7575160ff811681036104c7575f6122d4565b3d9150612347565b60405162461bcd60e51b815260206004820152600c60248201526b27b930b1b6329032b93937b960a11b6044820152606490fd5b506509184e72a00082136122aa565b506402540be4008213156122a3565b610e1091506123d69042611cf9565b115f61229b565b93505050915060a0813d60a01161242e575b816123fc60a09383611c67565b810103126104c75761240d816127f2565b916020820151926124256080606085015194016127f2565b9392905f612283565b3d91506123ef565b505f60075413611f49565b5f90611f32565b9094506020813d602011612474575b8161246460209383611c67565b810103126104c75751935f611efd565b3d9150612457565b50505050509050604051612207602082611c67565b6124aa915060203d602011610a8157610a738183611c67565b5f611eaa565b6124c9915060203d602011610a8157610a738183611c67565b5f611e41565b9180156125555781608091810103126104c75760208161250f7f99cf5cc1e3146bd15204f8eae4fe16c690d6123fbdac32515502fe688b86b8f593611b9b565b50612534606061252160408401611b9b565b6001600160a01b03169592013591611c8a565b835f526005825260405f2061254a828254611db5565b9055604051908152a2565b505050565b6001600160a01b03918216815291166020820152604081019190915260600190565b8054600160401b811015611c535761259991600182018155611bd3565b6126f3578151815560208201516001820155604082015160028201556060820151805160038301916001600160401b038211611c53576125d98354611c00565b601f81116126ae575b50602090601f831160011461264557918060049492608096945f9261263a575b50508160011b915f199060031b1c19161790555b0191015161262381611c8a565b61262c81611c8a565b60ff80198354169116179055565b015190505f80612602565b90601f19831691845f52815f20925f5b818110612696575092600192859260809896600498961061267e575b505050811b019055612616565b01515f1960f88460031b161c191690555f8080612671565b92936020600181928786015181550195019301612655565b835f5260205f20601f840160051c810191602085106126e9575b601f0160051c01905b8181106126de57506125e2565b5f81556001016126d1565b90915081906126c8565b634e487b7160e01b5f525f60045260245ffd5b5f546001600160a01b0316330361271957565b63118cdaa760e01b5f523360045260245ffd5b60026001541461273d576002600155565b633ee5aeb560e01b5f5260045ffd5b60405163a9059cbb60e01b60208201526001600160a01b039092166024830152604480830193909352918152612787916109d9606483611c67565b565b903590601e19813603018212156104c757018035906001600160401b0382116104c7576020019181360383136104c757565b60e0810160486127cb8284612789565b9050106127ec576127db91612789565b6048116104c7576034013560601c90565b50505f90565b51906001600160501b03821682036104c757565b5f8061284e9260018060a01b03169360208151910182865af13d15612891573d9061283082611ca8565b9161283e6040519384611c67565b82523d5f602084013e5b83612899565b8051908115159182612876575b50506128645750565b635274afe760e01b5f5260045260245ffd5b6128899250602080918301019101611d76565b155f8061285b565b606090612848565b906128bd57508051156128ae57805190602001fd5b630a12f52160e11b5f5260045ffd5b815115806128ee575b6128ce575090565b639996b31560e01b5f9081526001600160a01b0391909116600452602490fd5b50803b156128c656fefc577563f1b9a0461e24abef1e1fcc0d33d3d881f20b5df6dda59de4aae2c821c5437eb8dd091f69800961953f2bb0bc16ae1ff2d3e52caa96796db65f8271daa7503227727e36abb7f0ecf24f626347ccc20233c48c554d49d7d2077a1a304006653c045d0a3144153a51ac6909baae43b8d5b67184cb74e988b72858727fe4e94d78b6d8fb99b2c21131eb4552924a60f564d8515a3cc90ef300fc9735c0748be0079c531659141344cd1fd0a4f28419497f9722a3daafe3b4186f6b6457e0a2646970667358221220acf929f397ac529c56204681748e8c7a5342aa3d6ff1b3abf812706da343da9f64736f6c634300081c0033","linkReferences":{}},"methodIdentifiers":{"APNTS_TOKEN()":"74f053c4","BLS_AGGREGATOR()":"c06f58e8","BPS_DENOMINATOR()":"e1a45218","ETH_USD_PRICE_FEED()":"b0f0abe9","MAX_ETH_USD_PRICE()":"39788cd9","MIN_ETH_USD_PRICE()":"32726684","PRICE_CACHE_DURATION()":"539f51db","REGISTRY()":"06433b1b","SERVICE_FEE_BPS()":"ef7d87a3","SUPER_PAYMASTER_TREASURY()":"ad961ea7","aPNTsPriceUSD()":"594a6f23","addStake(uint32)":"0396cb60","configureOperator(address,address,uint256)":"847807f2","deposit()":"d0e30db0","deposit(uint256)":"b6b55f25","entryPoint()":"b0d691fe","executeSlashWithBLS(address,uint8,bytes)":"079d2d42","getAvailableCredit(address)":"b9b929fd","getDeposit()":"c399ec88","notifyDeposit(uint256)":"5949a8f7","onTransferReceived(address,address,uint256,bytes)":"88a7ca5c","operators(address)":"13e7c9d8","owner()":"8da5cb5b","postOp(uint8,bytes,uint256,uint256)":"7c627b21","protocolRevenue()":"7af3816c","renounceOwnership()":"715018a6","repayDebt(address,uint256)":"79e20bdc","setAPNTsToken(address)":"d20727d7","setBLSAggregator(address)":"bc959101","setOperatorPause(address,bool)":"01a1bb4d","slashHistory(address,uint256)":"8e580213","slashOperator(address,uint8,uint256,string)":"bfa5a1eb","totalTrackedBalance()":"61ad446e","transferOwnership(address)":"f2fde38b","unlockStake()":"bb9fe6bf","updateReputation(address,uint256)":"f5c91a08","userDebts(address)":"53a941a1","validatePaymasterUserOp((address,uint256,bytes,bytes,bytes32,uint256,bytes32,bytes,bytes),bytes32,uint256)":"52b7512c","withdraw(uint256)":"2e1a7d4d","withdrawProtocolRevenue(address,uint256)":"a4b5328f","withdrawStake(address)":"c23a5cea","withdrawTo(address,uint256)":"205c2878"},"id":33}